:100000000C944B000C9468000C9468000C946800ED
:100010000C9468000C9468000C9468000C946800C0
:100020000C9468000C9468000C9468000C94FF0019
:100030000C9468000C9468000C9468000C946800A0
:100040000C9468000C9468000C9468000C94680090
:100050000C9468000C9468000C9468000C94680080
:100060000C9468000C946800084AD73B3BCE016EA4
:1000700084BCBFFDC12F3D6C74319ABD56833DDAFF
:100080003D00C77F11BED9E4BB4C3E916BAAAABE0E
:10009000000000803F0011241FBECFEFD8E0DEBF7C
:1000A000CDBF21E0A4E1B1E001C01D92A633B207AB
:1000B000E1F711E0A0E0B1E0E8EBFEE002C005905E
:1000C0000D92A431B107D9F70E940D010C945A0783
:1000D0000C9400008093BB0084E88093BC00809166
:1000E000BC0087FFFCCF9091B900987F81E09832E7
:1000F00009F480E008951092BC0094EA9093BC004B
:100100009091BC0097FFFCCF9091B900987F9830F8
:1001100011F081E008958093BB0084E88093BC00D7
:100120008091BC0087FFFCCF8091B900887F883127
:1001300011F0803471F780E008958091C00087FF4E
:10014000FCCF8091C60090E008959091C00095FF8B
:10015000FCCF8093C60080E090E00895CF93C82F35
:1001600080ED0E947B00882329F085E08A95F1F7D5
:100170000000F6CF80ED0E947B008C2F0E946A0069
:1001800081ED0E947B0084EC8093BC008091BC00D8
:1001900087FFFCCF8091BB0090E0982F882724E850
:1001A0002093BC002091BC0027FFFCCF2091BB0016
:1001B00034E93093BC00822BCF9108951F93CF93E5
:1001C000DF93182FD62F80ED0E947B00882329F023
:1001D00085E08A95F1F70000F6CF80ED0E947B0064
:1001E000C82F812F0E946A008D2F0E946A0084E927
:1001F0008093BC008C2FDF91CF911F9108951F92A7
:100200000F920FB60F92112410920101109200016B
:100210000F900FBE0F901F901895CF93DF93CDB71F
:10022000DEB760970FB6F894DEBF0FBECDBF7894EF
:1002300088B1806388B988E48093B8008FE39CE933
:100240000197F1F700C000006BE08BE60E94DE0032
:1002500065E08AE10E94DE0060E08BE10E94DE0042
:1002600060E08CE10E94DE0087E690E09093C5009C
:100270008093C40088E18093C1008EE08093C20027
:1002800082E091E0909331018093300190933301AB
:100290008093320180E191E00E942A07539A239AC9
:1002A0008091B0008C7F8093B0008091B100877FF7
:1002B0008093B1008091B00081608093B000809104
:1002C000B0008F738093B0008091B0008F7C8093DA
:1002D000B0008091B00080688093B0008091B00041
:1002E00080638093B00081E090E09093150180934B
:1002F00014018091B100887F8093B1008091140136
:100300009091150188309105E1F040F40097A9F033
:10031000019721F58091B10081601EC08115A1E097
:100320009A0799F08115B4E09B0799F08034910504
:10033000A9F48091B10083600FC08091B100887FE3
:100340000BC08091B100826007C08091B1008460D1
:1003500003C08091B10085608093B100569A559A90
:1003600084B58C7F84BD85B5877F85BD84B581606C
:1003700084BD84B58F7384BD84B58F7C84BD84B502
:10038000806884BD84B5806384BD81E090E09093F3
:1003900015018093140185B5887F85BD8091140176
:1003A0009091150188309105C9F038F4009799F0C3
:1003B0000197E9F485B5816019C0811521E09207A4
:1003C00081F08115A4E09A0779F08034910579F4E1
:1003D00085B583600BC085B5887F08C085B5826010
:1003E00005C085B5846002C085B5856085BD8091F6
:1003F00080008C7F8093800080918100877E809335
:1004000081008091810088608093810081E090E08C
:10041000909317018093160180918100887F8093CB
:100420008100809116019091170188309105E1F0CB
:1004300040F40097A9F0019721F580918100816037
:100440001EC08115B1E09B0799F0811524E0920749
:1004500099F080349105A9F48091810083600FC0E8
:1004600080918100887F0BC080918100826007C0ED
:1004700080918100846003C08091810085608093B9
:100480008100809180008F73809380008091800034
:100490008F7C8093800080918000806480938000B6
:1004A000809180008F7C80938000B19880916F0054
:1004B000826080936F00209116013091170140E017
:1004C00050E060E074E284EF90E00E94E906CA0127
:1004D000B9010E9494052FE632E143E05BE30E94FC
:1004E000780620E030E040E85FE30E9406040E94C6
:1004F000630570938900609388008FE692E1A3E022
:10050000BBE380932C0190932D01A0932E01B09317
:100510002F0183E393E3A3EFB0E48093280190934A
:100520002901A0932A01B0932B011092240110926B
:10053000250110922601109227011092200110929D
:1005400021011092220110922301809100019091CB
:100550000101892B29F085E08A95F1F70000F5CF9C
:100560008BE30E94AE007C018DE30E94AE008FE31E
:100570000E94AE006C0183E40E94AE0085E40E94FC
:10058000AE005C0187E40E94AE00B501BB0C880B95
:10059000990B0E94940520E030E043E053E40E9470
:1005A000EA044B015C01B601DD0C880B990B0E943B
:1005B00094052B013C01B701FF0C880B990B0E949D
:1005C0009405A30192010E9486046B017C01C50180
:1005D000B4010E945C05072E000C880B990B0E9449
:1005E00094052CEA35EC47E257E30E94780620E0B8
:1005F00030E044EB52E40E9407042DEC3CEC4CE468
:100600005EE30E9478064B015C0120E030E044E3A9
:1006100053E4C701B6010E9478062BED3FE049E4A0
:1006200050E40E94EA042DEC3CEC4CE45FE30E94B1
:1006300078069B01AC01C501B4010E94070420E0CB
:1006400030E044EB52E40E9406046B017C0180918F
:10065000280190912901A0912A01B0912B018D834D
:100660009E83AF83B8878091240190912501A0914A
:100670002601B091270189879A87AB87BC87809133
:100680002C0190912D01A0912E01B0912F018D8709
:100690009E87AF87B88B80911C0190911D01A0911E
:1006A0001E01B0911F0189839A83AB83BC83809024
:1006B000200190902101A0902201B0902301409050
:1006C0002C0150902D0160902E0170902F012091EF
:1006D00018013091190140911A0150911B01C70175
:1006E000B6010E940604A50194010E947806A301A8
:1006F00092010E94EA044B015C012D853E854F85E5
:10070000588969857A858B859C850E947806298120
:100710003A814B815C810E9478062B013C012D813E
:100720003E814F815885C701B6010E9478069B0122
:10073000AC01C301B2010E9407049B01AC01C501D9
:10074000B4010E9407044B015C01C701B6010E947D
:100750005C05072E000C880B990B0E9494052981DB
:100760003A814B815C810E94070460931C01709365
:100770001D0180931E0190931F01C0921801D09219
:100780001901E0921A01F0921B0120E030E04EEFD7
:1007900052E4C501B4010E9407040E94630570E0A1
:1007A00080E090E00E9492056B017C0120E030E047
:1007B0004CE453E40E946B0618168CF020E030E005
:1007C0004CE452E4C701B6010E94E50487FF0DC066
:1007D000C12CD12C9CE4E92E92E4F92E06C0C12C48
:1007E000D12C8CE4E82E83E4F82EC701B6010E94D8
:1007F000630567BD68BD6093B3006093B400A1E07A
:10080000B0E0B0930101A09300019FCE5058BB27E8
:10081000AA270E941E040C9431060E94230638F079
:100820000E942A0620F039F49F3F19F426F40C9414
:10083000F9050EF4E095E7FB0C94F305E92F0E940F
:10084000420658F3BA17620773078407950720F02A
:1008500079F4A6F50C9464060EF4E0950B2EBA2FED
:10086000A02D0B01B90190010C01CA01A0011124B6
:10087000FF27591B99F0593F50F4503E68F11A1662
:10088000F040A22F232F342F4427585FF3CF4695F3
:1008900037952795A795F0405395C9F77EF41F1615
:1008A000BA0B620B730B840BBAF09150A1F0FF0FDF
:1008B000BB1F661F771F881FC2F70EC0BA0F621FCB
:1008C000731F841F48F4879577956795B795F795BB
:1008D0009E3F08F0B0CF9395880F08F09927EE0F50
:1008E0009795879508950E94230660F080E891E02F
:1008F00009F49EEF0E942A0628F040E851E071F4C6
:100900005EEF0CC00C94F9050C946406E92FE078B6
:100910000E94420640F3092E052AB1F32617370735
:100920004807590738F00E2E07F8E02569F0E02552
:10093000E0640AC0EF6307F8009407FADB01B9012D
:100940009D01DC01CA01AD01EF930E9401050E94E7
:1009500031060E94B6045F91552339F02BED3FE03C
:1009600049E450FD49EC0C9407040895DF93DD271A
:10097000B92FBF7740E85FE31616170648075B07F5
:1009800018F4D92F0E9470069F938F937F936F93D3
:100990000E94E506E8E6F0E00E94FC050E943106B0
:1009A0002F913F914F915F910E948B06DD2351F073
:1009B0009058A2EA2AED3FE049EC5FE3D0785D274A
:1009C0000E941E04DF910C9431060E94CF0508F4AA
:1009D00081E008950E94FE040C9431060E942A06CC
:1009E00058F00E94230640F029F45F3F29F00C9450
:1009F000F30551110C9465060C94F9050E9442060A
:100A000068F39923B1F3552391F3951B550BBB273D
:100A1000AA2762177307840738F09F5F5F4F220F82
:100A2000331F441FAA1FA9F335D00E2E3AF0E0E879
:100A300032D091505040E695001CCAF72BD0FE2FC3
:100A400029D0660F771F881FBB1F26173707480757
:100A5000AB07B0E809F0BB0B802DBF01FF2793580F
:100A60005F4F3AF09E3F510578F00C94F3050C94DB
:100A700065065F3FE4F3983ED4F3869577956795D6
:100A8000B795F7959F5FC9F7880F911D9695879544
:100A900097F90895E1E0660F771F881FBB1F621763
:100AA00073078407BA0720F0621B730B840BBA0B21
:100AB000EE1F88F7E09508950E9463056894B111D0
:100AC0000C94650608950E944A0688F09F5798F096
:100AD000B92F9927B751B0F0E1F0660F771F881F43
:100AE000991F1AF0BA95C9F714C0B13091F00E945D
:100AF0006406B1E008950C946406672F782F882768
:100B0000B85F39F0B93FCCF3869577956795B39583
:100B1000D9F73EF490958095709561957F4F8F4FF2
:100B20009F4F0895E89409C097FB3EF490958095F7
:100B3000709561957F4F8F4F9F4F9923A9F0F92FA3
:100B400096E9BB279395F695879577956795B79521
:100B5000F111F8CFFAF4BB0F11F460FF1BC06F5F07
:100B60007F4F8F4F9F4F16C0882311F096E911C019
:100B7000772321F09EE8872F762F05C0662371F03A
:100B800096E8862F70E060E02AF09A95660F771F4E
:100B9000881FDAF7880F9695879597F90895990F2A
:100BA0000008550FAA0BE0E8FEEF16161706E80737
:100BB000F907C0F012161306E407F50798F0621B58
:100BC000730B840B950B39F40A2661F0232B242B2D
:100BD000252B21F408950A2609F4A140A6958FEF4C
:100BE000811D811D089597F99F6780E870E060E09E
:100BF00008959FEF80EC0895DF93CF931F930F9399
:100C0000FF92EF92DF927B018C01689406C0DA2E8E
:100C1000EF010E948B06FE01E894A5912591359184
:100C200045915591A6F3EF010E941E04FE01970124
:100C3000A801DA9469F7DF90EF90FF900F911F9170
:100C4000CF91DF91089500240A941616170618060E
:100C50000906089500240A941216130614060506C0
:100C60000895092E0394000C11F4882352F0BB0F51
:100C700040F4BF2B11F460FF04C06F5F7F4F8F4FB4
:100C80009F4F089557FD9058440F551F59F05F3FEF
:100C900071F04795880F97FB991F61F09F3F79F09E
:100CA00087950895121613061406551FF2CF469520
:100CB000F1DF08C0161617061806991FF1CF8695A2
:100CC0007105610508940895E894BB276627772786
:100CD000CB0197F908950E94CF0508F48FEF08958E
:100CE0009B01AC0160E070E080E89FE30C94EA04B3
:100CF0000E948B060C9431060E94230638F00E9455
:100D00002A0620F0952311F00C94F3050C94F905B4
:100D100011240C9465060E94420670F3959FC1F35E
:100D2000950F50E0551F629FF001729FBB27F00D99
:100D3000B11D639FAA27F00DB11DAA1F649F6627EE
:100D4000B00DA11D661F829F2227B00DA11D621F3D
:100D5000739FB00DA11D621F839FA00D611D221FF7
:100D6000749F3327A00D611D231F849F600D211DDB
:100D7000822F762F6A2F11249F5750409AF0F1F05E
:100D800088234AF0EE0FFF1FBB1F661F771F881FC7
:100D900091505040A9F79E3F510580F00C94F30507
:100DA0000C9465065F3FE4F3983ED4F386957795FF
:100DB0006795B795F795E7959F5FC1F7FE2B880F6D
:100DC000911D9695879597F908959B01AC010C9418
:100DD0007806052E97FB1EF400940E94000757FD2D
:100DE00007D00E94080707FC03D04EF40C940007BC
:100DF00050954095309521953F4F4F4F5F4F089547
:100E000090958095709561957F4F8F4F9F4F089576
:100E1000A1E21A2EAA1BBB1BFD010DC0AA1FBB1FFE
:100E2000EE1FFF1FA217B307E407F50720F0A21B70
:100E3000B30BE40BF50B661F771F881F991F1A94DD
:100E400069F760957095809590959B01AC01BD0107
:100E5000CF0108950F931F93CF93DF93E091320159
:100E6000F0913301238121FF1BC08C01D0E0C0E051
:100E7000F80181918F016091320170913301DB01A2
:100E80001896ED91FC911997882331F00995892BDB
:100E900079F3DFEFCFEFECCF8AE00995892B19F0DA
:100EA0008FEF9FEF02C08D2F9C2FDF91CF911F916D
:080EB0000F910895F894FFCFA3
:100EB80001000000000300000000A5009D000000E4
:040EC8004F4B0D007F
:00000001FF
