:100000000C9434000C9451000C9451000C94510049
:100010000C9451000C9451000C9451000C9451001C
:100020000C9451000C9451000C9451000C9451000C
:100030000C9451000C9451000C9451000C945100FC
:100040000C9451000C9451000C9451000C945100EC
:100050000C9451000C9451000C9451000C945100DC
:100060000C9451000C94510011241FBECFEFD8E026
:10007000DEBFCDBF21E0A8E2B1E001C01D92AE32EB
:10008000B207E1F711E0A0E0B1E0E0E6F9E002C07C
:1000900005900D92A832B107D9F70E94DE000C94AA
:1000A000AE040C9400008093BB0084E88093BC00F5
:1000B0008091BC0087FFFCCF9091B900987F81E0D0
:1000C000983209F480E008951092BC0094EA90936D
:1000D000BC009091BC0097FFFCCF9091B900987F35
:1000E000983011F081E008958093BB0084E88093FC
:1000F000BC008091BC0087FFFCCF8091B900887F55
:10010000883111F0803471F780E00895CF93C82FC3
:1001100080ED0E9464008111FBCF80ED0E9464009D
:100120008C2F0E94530081ED0E94640084EC809328
:10013000BC008091BC0087FFFCCF8091BB0090E0A9
:10014000982F882724E82093BC002091BC0027FF2B
:10015000FCCF2091BB0034E93093BC00822BCF91BF
:1001600008951F93CF93DF93182FD62F80ED0E9411
:1001700064008111FBCF80ED0E946400C82F812FA5
:100180000E9453008D2F0E94530084E98093BC008D
:100190008C2FDF91CF911F9108958091C00087FF30
:1001A000FCCF8091C60090E008959091C00095FF2B
:1001B000FCCF8093C60080E090E00895CF93DF935A
:1001C000CDB7DEB764970FB6F894DEBF0FBECDBFD4
:1001D00088B1806388B988E48093B8008FE39CE994
:1001E0000197F1F700C000006BE08BE60E94B100C0
:1001F00065E08AE10E94B10060E08BE10E94B100FD
:1002000060E08CE10E94B10087E690E09093C50029
:100210008093C40088E18093C1008EE08093C20087
:1002200080E091E0909329018093280190932B0125
:1002300080932A018EE091E00E9494019FEF2BE7CA
:1002400082E9915020408040E1F700C0000082E147
:10025000C82E81E0D82E92E8592E2FE8622E3CE578
:10026000732E4AE1E42E41E0F42E8E010F5F1F4F02
:100270008BE30E948600482E8CE30E9486004C018E
:100280008DE30E9486008EE30E9486008FE30E9429
:10029000860080E40E94860083E40E94860084E455
:1002A0000E94860085E40E94860086E40E94860003
:1002B00087E40E94860088E40E948600B42CA12C6A
:1002C000C501882999299F938F93DF92CF920E942D
:1002D0007E018FE38F935F926F927F92FF92EF92F6
:1002E0001F930F930E94C4011F930F930E947E01DE
:1002F0000FB6F894DEBF0FBECDBFBACFA0E0B0E01E
:10030000E4E8F1E00C948704AE014B5F5F4FFA0123
:1003100061917191AF0180912A0190912B010E940E
:10032000E601E2E00C94A3040F931F93CF93DF93B5
:10033000E0912A01F0912B01238121FF1BC08C0148
:10034000D0E0C0E0F80181918F0160912A017091A5
:100350002B01DB011896ED91FC911997882331F060
:100360000995892B79F3DFEFCFEFECCF8AE0099580
:10037000892B19F08FEF9FEF02C08D2F9C2FDF91FB
:10038000CF911F910F910895AEE0B0E0EAECF1E05B
:100390000C9485040D891E8986E08C831A83098359
:1003A0008FEF9FE79E838D83AE01475E5F4F6F891E
:1003B000788DCE0101960E94E601EF81F885E00F6D
:1003C000F11F10822E96E4E00C94A104ABE0B0E0A3
:1003D000ECEEF1E00C9477046C017B018A01FC01E6
:1003E00017821682838181FFCCC1CE0101963C0128
:1003F000F6019381F70193FD859193FF81917F0130
:10040000882309F4BAC1853239F493FD859193FFAD
:1004100081917F01853229F4B60190E00E94DD03CD
:10042000E7CF912C212C312CFFE1F315D8F08B3242
:1004300079F038F4803279F08332A1F4232D2061F1
:100440001DC08D3261F0803369F4232D216016C008
:10045000832D8260382EE32DE4603E2E2AC0F32DDA
:10046000F8601DC037FC2DC020ED280F2A3040F069
:100470008E32B9F436FC81C1232D2064322E19C08E
:1004800036FE06C08AE0989E200D1124922E11C0DF
:10049000EAE02E9E200D1124222EF32DF0623F2E35
:1004A00008C08C3621F4832D8068382E02C088362F
:1004B00041F4F70193FD859193FF81917F018111B3
:1004C000B3CF982F9F7D9554933028F40C5F1F4F26
:1004D0009FE399830DC0833631F0833771F0833504
:1004E00009F059C021C0F801808189830E5F1F4F38
:1004F00088248394912C530113C02801F2E04F0EFD
:10050000511CF801A080B18036FE03C0692D70E057
:1005100002C06FEF7FEFC5010E94D2034C01820140
:10052000F32DFF773F2E16C0280122E0420E511C0A
:10053000F801A080B18036FE03C0692D70E002C0D2
:100540006FEF7FEFC5010E94C7034C01F32DF068E8
:100550003F2E820133FC1BC0822D90E08816990645
:10056000B0F4B60180E290E00E94DD032A94F4CF5B
:10057000F50137FC859137FE81915F01B60190E06E
:100580000E94DD0321102A9421E0821A910881142F
:10059000910471F7E8C0843611F0893641F5F8010D
:1005A00037FE07C060817181828193810C5F1F4F8C
:1005B00008C060817181072E000C880B990B0E5FBB
:1005C0001F4FF32DFF763F2E97FF09C09095809522
:1005D000709561957F4F8F4F9F4FF0683F2E2AE0B7
:1005E00030E0A3010E941904882E861845C0853783
:1005F00031F4232D2F7EB22E2AE030E025C0932D3A
:10060000997FB92E8F36C1F018F4883579F0B5C0CE
:10061000803719F0883721F0B0C0E92FE061BE2E95
:10062000B4FE0DC0FB2DF460BF2E09C034FE0AC01D
:10063000292F2660B22E06C028E030E005C020E158
:1006400030E002C020E132E0F801B7FE07C060816F
:100650007181828193810C5F1F4F06C0608171811F
:1006600080E090E00E5F1F4FA3010E941904882EC6
:100670008618FB2DFF773F2E36FE0DC0232D2E7FD3
:10068000A22E891458F434FE0BC032FC09C0832D0D
:100690008E7EA82E05C0B82CA32C03C0B82C01C098
:1006A000B92CA4FE0FC0FE01E80DF11D808180333E
:1006B00021F49A2D997EA92E09C0A2FE06C0B394FA
:1006C000B39404C08A2D867809F0B394A3FC11C0BA
:1006D000A0FE06C0B21488F4280C922C9B180EC001
:1006E000B21460F4B60180E290E00E94DD03B3949E
:1006F000F7CFB21418F42B1802C0982C212CA4FEAA
:1007000010C0B60180E390E00E94DD03A2FE17C096
:10071000A1FC03C088E790E002C088E590E0B60144
:100720000CC08A2D867859F0A1FE02C08BE201C070
:1007300080E2A7FC8DE2B60190E00E94DD038914FF
:1007400038F4B60180E390E00E94DD039A94F7CF7D
:100750008A94F301E80DF11D8081B60190E00E94BA
:10076000DD038110F5CF222009F442CEB60180E2EC
:1007700090E00E94DD032A94F6CFF60186819781EE
:1007800002C08FEF9FEF2B96E2E10C949304FC01E3
:100790000590615070400110D8F7809590958E0FAC
:1007A0009F1F0895FC016150704001900110D8F71F
:1007B000809590958E0F9F1F08950F931F93CF9351
:1007C000DF93FB01238121FD03C08FEF9FEF2CC03E
:1007D00022FF16C046815781248135814217530775
:1007E00044F4A081B1819D012F5F3F4F318320836D
:1007F0008C93268137812F5F3F4F3783268314C028
:100800008B01EC01FB010084F185E02D0995892B1A
:10081000E1F6D80116968D919C911797019617963F
:100820009C938E931697CE01DF91CF911F910F91DC
:100830000895FA01AA27283051F1203181F1E89476
:100840006F936E7F6E5F7F4F8F4F9F4FAF4FB1E0C3
:100850003ED0B4E03CD0670F781F891F9A1FA11DBE
:10086000680F791F8A1F911DA11D6A0F711D811DBF
:10087000911DA11D20D009F468943F912AE0269F84
:1008800011243019305D3193DEF6CF010895462FE3
:100890004770405D4193B3E00FD0C9F7F6CF462FC4
:1008A0004F70405D4A3318F0495D31FD405241932D
:1008B00002D0A9F7EACFB4E0A695979587957795EA
:1008C0006795BA95C9F700976105710508959B0171
:1008D000AC010A2E06945795479537952795BA95FA
:1008E000C9F7620F731F841F951FA01D08952F92D3
:1008F0003F924F925F926F927F928F929F92AF92B0
:10090000BF92CF92DF92EF92FF920F931F93CF93FC
:10091000DF93CDB7DEB7CA1BDB0B0FB6F894DEBF93
:100920000FBECDBF09942A88398848885F846E84B9
:100930007D848C849B84AA84B984C884DF80EE8003
:10094000FD800C811B81AA81B981CE0FD11D0FB60C
:10095000F894DEBF0FBECDBFED010895F894FFCF30
:100960000000000300000000D500CD0000004F4B48
:100970000D005261772025640A00204178203D2037
:08098000252E326620670A00F3
:00000001FF
