:100000000C9434000C9451000C9451000C94510049
:100010000C9451000C9451000C9451000C9451001C
:100020000C9451000C9451000C9451000C9451000C
:100030000C9451000C9451000C9451000C945100FC
:100040000C9451000C9451000C9451000C945100EC
:100050000C9451000C9451000C9451000C945100DC
:100060000C9451000C94510011241FBECFEFD8E026
:10007000DEBFCDBF21E0A2E1B1E001C01D92A233FD
:10008000B207E1F711E0A0E0B1E0E4E2F6E002C07F
:1000900005900D92A231B107D9F70E9464000C942B
:1000A00010030C9400008091C00087FFFCCF80916A
:1000B000C60090E008959091C00095FFFCCF80931A
:1000C000C60080E090E0089587E690E09093C50038
:1000D0008093C40088E18093C1008EE08093C200C9
:1000E00080E091E090932D0180932C0190932F015B
:1000F00080932E018EE091E00E94E002559A5E9876
:1001000084B58C7F84BD85B5877F85BD84B58360CC
:1001100084BD84B58F7384BD84B58F7C84BD84B564
:10012000806884BD84B5806284BD80E094E0909353
:100130002B0180932A0185B5887F85BD80912A0196
:1001400090912B0188309105C9F038F4009799F00F
:100150000197E9F485B5816019C0811521E0920706
:1001600081F0811524E0920779F08034910579F4CB
:1001700085B583600BC085B5887F08C085B5826072
:1001800005C085B5846002C085B5856085BD2091B8
:100190002A0130912B0140E050E0C12C84E2D82E9E
:1001A00084EFE82EF12CC701B6010E949F02CA011C
:1001B000B9010E94A60120E030E040E251E40E9433
:1001C000320220E030E040E85FE30E9409010E9433
:1001D000750167BD20912A0130912B0140E050E06C
:1001E000C701B6010E949F02CA01B9010E94A6017F
:1001F0002AE037ED43E25CE30E94320220E030E087
:1002000040E85FE30E9409010E94750168BDFFCFCD
:100210005058BB27AA270E9420010C94F8010E9485
:10022000EA0138F00E94F10120F039F49F3F19F4FF
:1002300026F40C94E7010EF4E095E7FB0C94E10141
:10024000E92F0E94090258F3BA176207730784075F
:10025000950720F079F4A6F50C942B020EF4E095A6
:100260000B2EBA2FA02D0B01B90190010C01CA0170
:10027000A0011124FF27591B99F0593F50F4503E1B
:1002800068F11A16F040A22F232F342F4427585F0D
:10029000F3CF469537952795A795F0405395C9F725
:1002A0007EF41F16BA0B620B730B840BBAF09150DD
:1002B000A1F0FF0FBB1F661F771F881FC2F70EC07C
:1002C000BA0F621F731F841F48F48795779567954F
:1002D000B795F7959E3F08F0B0CF9395880F08F03B
:1002E0009927EE0F9795879508950E94110288F03F
:1002F0009F5798F0B92F9927B751B0F0E1F0660FEA
:10030000771F881F991F1AF0BA95C9F714C0B1302A
:1003100091F00E942B02B1E008950C942B02672FFC
:10032000782F8827B85F39F0B93FCCF38695779559
:100330006795B395D9F73EF4909580957095619542
:100340007F4F8F4F9F4F0895E89409C097FB3EF46D
:1003500090958095709561957F4F8F4F9F4F992312
:10036000A9F0F92F96E9BB279395F6958795779590
:100370006795B795F111F8CFFAF4BB0F11F460FF50
:100380001BC06F5F7F4F8F4F9F4F16C0882311F0A8
:1003900096E911C0772321F09EE8872F762F05C0BC
:1003A000662371F096E8862F70E060E02AF09A9557
:1003B000660F771F881FDAF7880F9695879597F94C
:1003C000089597F99F6780E870E060E008959FEFD7
:1003D00080EC089500240A941616170618060906DC
:1003E000089500240A9412161306140605060895AB
:1003F000092E0394000C11F4882352F0BB0F40F433
:10040000BF2B11F460FF04C06F5F7F4F8F4F9F4F72
:10041000089557FD9058440F551F59F05F3F71F0F4
:100420004795880F97FB991F61F09F3F79F087955B
:100430000895121613061406551FF2CF4695F1DFE4
:1004400008C0161617061806991FF1CF8695710574
:10045000610508940895E894BB2766277727CB01A8
:1004600097F908950E9445020C94F8010E94EA0150
:1004700038F00E94F10120F0952311F00C94E10175
:100480000C94E70111240C942C020E94090270F3D1
:10049000959FC1F3950F50E0551F629FF001729F29
:1004A000BB27F00DB11D639FAA27F00DB11DAA1F38
:1004B000649F6627B00DA11D661F829F2227B00D85
:1004C000A11D621F739FB00DA11D621F839FA00D10
:1004D000611D221F749F3327A00D611D231F849F60
:1004E000600D211D822F762F6A2F11249F575040B7
:1004F0009AF0F1F088234AF0EE0FFF1FBB1F661F32
:10050000771F881F91505040A9F79E3F510580F0FA
:100510000C94E1010C942C025F3FE4F3983ED4F379
:10052000869577956795B795F795E7959F5FC1F79E
:10053000FE2B880F911D9695879597F90895052EA6
:1005400097FB1EF400940E94B60257FD07D00E944C
:10055000BE0207FC03D04EF40C94B60250954095B1
:10056000309521953F4F4F4F5F4F0895909580955F
:10057000709561957F4F8F4F9F4F0895A1E21A2E7E
:10058000AA1BBB1BFD010DC0AA1FBB1FEE1FFF1F37
:10059000A217B307E407F50720F0A21BB30BE40B87
:1005A000F50B661F771F881F991F1A9469F76095CE
:1005B0007095809590959B01AC01BD01CF01089588
:1005C0000F931F93CF93DF93E0912E01F0912F01B2
:1005D000238121FF1BC08C01D0E0C0E0F801819194
:1005E0008F0160912E0170912F01DB011896ED9122
:1005F000FC911997882331F00995892B79F3DFEF66
:10060000CFEFECCF8AE00995892B19F08FEF9FEFA0
:1006100002C08D2F9C2FDF91CF911F910F910895D4
:04062000F894FFCF7C
:1006240000000003000000005B00530000004F4B7B
:020634000D00B7
:00000001FF
