:100000000C9434000C9451000C9451000C94510049
:100010000C9451000C9451000C9451000C9451001C
:100020000C9451000C9451000C9451000C9451000C
:100030000C9451000C9451000C9451000C945100FC
:100040000C9451000C9451000C9451000C945100EC
:100050000C9451000C9451000C9451000C945100DC
:100060000C9451000C94510011241FBECFEFD8E026
:10007000DEBFCDBF21E0A2E1B1E001C01D92A233FD
:10008000B207E1F711E0A0E0B1E0E0ECF2E002C07D
:1000900005900D92A231B107D9F70E9464000C942B
:1000A0005E010C9400008091C00087FFFCCF80911E
:1000B000C60090E008959091C00095FFFCCF80931A
:1000C000C60080E090E0089587E690E09093C50038
:1000D0008093C40088E18093C1008EE08093C200C9
:1000E00080E091E090932D0180932C0190932F015B
:1000F00080932E018EE091E00E942E01539A2B985E
:100100008091B0008C7F8093B0008091B100877F98
:100110008093B1008091B00083608093B0008091A3
:10012000B0008F738093B0008091B0008F7C80937B
:10013000B0008091B00080688093B0008091B000E2
:1001400080628093B00080E091E090932B018093D7
:100150002A018091B100887F8093B10080912A01AB
:1001600090912B0188309105E1F040F40097A9F0BF
:10017000019721F58091B10081601EC0811521E0B9
:10018000920799F0811524E0920799F08034910547
:10019000A9F48091B10083600FC08091B100887F85
:1001A0000BC08091B100826007C08091B100846073
:1001B00003C08091B10085608093B1001092B300BC
:1001C0001092B400569A5D9884B58C7F84BD85B535
:1001D000877F85BD84B5836084BD84B58F7384BDFE
:1001E00084B58F7C84BD84B5806884BD84B580620D
:1001F00084BD80E091E090932B0180932A0185B526
:10020000887F85BD80912A0190912B0188309105CE
:10021000C9F038F4009799F00197E9F485B5816049
:1002200019C0811521E0920781F0811524E0920721
:1002300079F08034910579F485B583600BC085B57C
:10024000887F08C085B5826005C085B5846002C01E
:1002500085B5856085BD17BC18BCFFCF0F931F9374
:10026000CF93DF93E0912E01F0912F01238121FFA5
:100270001BC08C01D0E0C0E0F80181918F0160913A
:100280002E0170912F01DB011896ED91FC911997C9
:10029000882331F00995892B79F3DFEFCFEFECCF8D
:1002A0008AE00995892B19F08FEF9FEF02C08D2FFF
:1002B0009C2FDF91CF911F910F910895F894FFCF5C
:1002C00000000003000000005B00530000004F4BE3
:0202D0000D001F
:00000001FF
