:100000000C944B000C9468000C9468000C946800ED
:100010000C9468000C9468000C9468000C946800C0
:100020000C9468000C9468000C9468000C94FF0019
:100030000C9468000C9468000C9468000C946800A0
:100040000C9468000C9468000C9468000C94680090
:100050000C9468000C9468000C9468000C94680080
:100060000C9468000C946800084AD73B3BCE016EA4
:1000700084BCBFFDC12F3D6C74319ABD56833DDAFF
:100080003D00C77F11BED9E4BB4C3E916BAAAABE0E
:10009000000000803F0011241FBECFEFD8E0DEBF7C
:1000A000CDBF21E0A8E1B1E001C01D92AA33B207A3
:1000B000E1F711E0A0E0B1E0E4EFF3E102C0059068
:1000C0000D92A831B107D9F70E940D010C94F809DF
:1000D0000C9400008093BB0084E88093BC00809166
:1000E000BC0087FFFCCF9091B900987F81E09832E7
:1000F00009F480E008951092BC0094EA9093BC004B
:100100009091BC0097FFFCCF9091B900987F9830F8
:1001100011F081E008958093BB0084E88093BC00D7
:100120008091BC0087FFFCCF8091B900887F883127
:1001300011F0803471F780E008958091C00087FF4E
:10014000FCCF8091C60090E008959091C00095FF8B
:10015000FCCF8093C60080E090E00895CF93C82F35
:1001600080ED0E947B00882329F085E08A95F1F7D5
:100170000000F6CF80ED0E947B008C2F0E946A0069
:1001800081ED0E947B0084EC8093BC008091BC00D8
:1001900087FFFCCF8091BB0090E0982F882724E850
:1001A0002093BC002091BC0027FFFCCF2091BB0016
:1001B00034E93093BC00822BCF9108951F93CF93E5
:1001C000DF93182FD62F80ED0E947B00882329F023
:1001D00085E08A95F1F70000F6CF80ED0E947B0064
:1001E000C82F812F0E946A008D2F0E946A0084E927
:1001F0008093BC008C2FDF91CF911F9108951F92A7
:100200000F920FB60F92112410920101109200016B
:100210000F900FBE0F901F901895CF93DF93CDB71F
:10022000DEB764970FB6F894DEBF0FBECDBF7894EB
:1002300088B1806388B988E48093B8008FE39CE933
:100240000197F1F700C000006BE08BE60E94DE0032
:1002500065E08AE10E94DE0060E08BE10E94DE0042
:1002600060E08CE10E94DE0087E690E09093C5009C
:100270008093C40088E18093C1008EE08093C20027
:1002800082E091E09093350180933401909337019F
:100290008093360180E191E00E940007539A239AEF
:1002A0008091B0008C7F8093B0008091B100877FF7
:1002B0008093B1008091B00081608093B000809104
:1002C000B0008F738093B0008091B0008F7C8093DA
:1002D000B0008091B00080688093B0008091B00041
:1002E00080638093B00081E090E090931901809347
:1002F00018018091B100887F8093B100809118012E
:100300009091190188309105E1F040F40097A9F02F
:10031000019721F58091B10081601EC08115A1E097
:100320009A0799F08115B4E09B0799F08034910504
:10033000A9F48091B10083600FC08091B100887FE3
:100340000BC08091B100826007C08091B1008460D1
:1003500003C08091B10085608093B100569A559A90
:1003600084B58C7F84BD85B5877F85BD84B581606C
:1003700084BD84B58F7384BD84B58F7C84BD84B502
:10038000806884BD84B5806384BD81E090E09093F3
:1003900019018093180185B5887F85BD809118016A
:1003A0009091190188309105C9F038F4009799F0BF
:1003B0000197E9F485B5816019C0811521E09207A4
:1003C00081F08115A4E09A0779F08034910579F4E1
:1003D00085B583600BC085B5887F08C085B5826010
:1003E00005C085B5846002C085B5856085BD8091F6
:1003F00080008C7F8093800080918100877E809335
:1004000081008091810088608093810088E090E085
:1004100090931B0180931A0180918100887F8093C3
:10042000810080911A0190911B0188309105E1F0C3
:1004300040F40097A9F0019721F580918100816037
:100440001EC08115B1E09B0799F0811524E0920749
:1004500099F080349105A9F48091810083600FC0E8
:1004600080918100887F0BC080918100826007C0ED
:1004700080918100846003C08091810085608093B9
:100480008100809180008F73809380008091800034
:100490008F7C8093800080918000806480938000B6
:1004A000809180008F7C80938000B19880916F0054
:1004B000826080936F0020911A0130911B0140E00F
:1004C00050E060E074E284EF90E00E94A906CA0167
:1004D000B9010E947D052AE037ED43E25CE30E940A
:1004E000380620E030E040E85FE30E94F5030E9418
:1004F0004C0570938900609388008AE097EDA3E231
:10050000BCE38093300190933101A0933201B0930A
:10051000330180E090E0A0E2B0E480932C0190935E
:100520002D01A0932E01B0932F011092280110925B
:10053000290110922A0110922B011092240110928D
:100540002501109226011092270101E010E0809110
:10055000000190910101892B29F085E08A95F1F73E
:100560000000F5CF8BE30E94AE007C018DE30E947A
:10057000AE008FE30E94AE006C0183E40E94AE00E7
:1005800085E40E94AE005C0187E40E94AE00B501E4
:10059000BB0C880B990B0E947D0520E030E043E006
:1005A00053E40E94D3044B015C01B601DD0C880BBF
:1005B000990B0E947D052B013C01B701FF0C880BB4
:1005C000990B0E947D05A30192010E9474046B01A6
:1005D0007C01C501B4010E944505072E000C880B63
:1005E000990B0E947D052CEA35EC47E257E30E9407
:1005F000380620E030E044EB52E40E94F5032DEC95
:100600003CEC4CEC5DE30E9438064B015C0120E0C1
:1006100030E044E353E4C701B6010E9438062BEDF5
:100620003FE049E450E40E94D30426E636E646E67D
:100630005FE30E9438069B01AC01C501B4010E9432
:10064000F50320E030E044EB52E40E94F4036B0138
:100650007C0180912C0190912D01A0912E01B091EF
:100660002F0189839A83AB83BC838090280190906B
:100670002901A0902A01B0902B01409030015090A8
:10068000310160903201709033018091200190918E
:100690002101A0912201B09123018D839E83AF831C
:1006A000B88780911C0190911D01A0911E01B0910D
:1006B0001F0189879A87AB87BC878091240190911D
:1006C0002501A0912601B09127018D879E87AF87D4
:1006D000B88B8091300190913101A0913201B0919D
:1006E0003301898B9A8BAB8BBC8B2091200130918D
:1006F00021014091220150912301C701B6010E94BE
:10070000F50360932001709321018093220190935F
:100710002301C0921C01D0921D01E0921E01F092B3
:100720001F01A3019201C501B4010E9438062D8169
:100730003E814F8158850E9438064B015C0129811A
:100740003A814B815C81C701B6010E9438069B014A
:10075000AC01C501B4010E94F5034B015C01298580
:100760003A854B855C85C701B6010E94F4032D854F
:100770003E854F8558890E94380629893A894B89D8
:100780005C890E94D3049B01AC01C501B4010E94A5
:10079000F50320E030E04EEF52E40E94F5030E94A2
:1007A0004C05F62E1F926F93A4E1B1E0BF93AF9377
:1007B0000E94EA060F900F900F900F9080EF8F1518
:1007C00030F099E09F1528F09AE0F92E02C080EFF2
:1007D000F82EF7BCF8BCF092B300F092B40010937E
:1007E000010100930001B3CE5058BB27AA270E94F5
:1007F0000C040C94F6050E94E80538F00E94EF0501
:1008000020F039F49F3F19F426F40C94BE050EF441
:10081000E095E7FB0C94B805E92F0E94070658F312
:10082000BA17620773078407950720F079F4A6F5D5
:100830000C9429060EF4E0950B2EBA2FA02D0B0177
:10084000B90190010C01CA01A0011124FF27591B15
:1008500099F0593F50F4503E68F11A16F040A22F1B
:10086000232F342F4427585FF3CF4695379527958C
:10087000A795F0405395C9F77EF41F16BA0B620B8B
:10088000730B840BBAF09150A1F0FF0FBB1F661FD2
:10089000771F881FC2F70EC0BA0F621F731F841F15
:1008A00048F4879577956795B795F7959E3F08F03B
:1008B000B0CF9395880F08F09927EE0F97958795FD
:1008C00008950E94E80560F080E891E009F49EEF49
:1008D0000E94EF0528F040E851E071F45EEF0CC093
:1008E0000C94BE050C942906E92FE0780E940706B7
:1008F00040F3092E052AB1F3261737074807590791
:1009000038F00E2E07F8E02569F0E025E0640AC013
:10091000EF6307F8009407FADB01B9019D01DC01E0
:10092000CA01AD01EF930E94EA040E94F6050E94FD
:10093000A4045F91552339F02BED3FE049E450FDCD
:1009400049EC0C94F5030895DF93DD27B92FBF77A9
:1009500040E85FE31616170648075B0718F4D92F1F
:100960000E9430069F938F937F936F930E94A506FA
:10097000E8E6F0E00E94C1050E94F6052F913F9144
:100980004F915F910E944B06DD2351F09058A2EAEF
:100990002AED3FE049EC5FE3D0785D270E940C042C
:1009A000DF910C94F6050E94E7040C94F6050E9472
:1009B000EF0558F00E94E80540F029F45F3F29F068
:1009C0000C94B80551110C942A060C94BE050E9493
:1009D000070668F39923B1F3552391F3951B550B43
:1009E000BB27AA2762177307840738F09F5F5F4F02
:1009F000220F331F441FAA1FA9F335D00E2E3AF041
:100A0000E0E832D091505040E695001CCAF72BD058
:100A1000FE2F29D0660F771F881FBB1F26173707A9
:100A20004807AB07B0E809F0BB0B802DBF01FF27DB
:100A300093585F4F3AF09E3F510578F00C94B805FB
:100A40000C942A065F3FE4F3983ED4F3869577959D
:100A50006795B795F7959F5FC9F7880F911D969594
:100A6000879597F90895E1E0660F771F881FBB1FF0
:100A7000621773078407BA0720F0621B730B840B9D
:100A8000BA0BEE1F88F7E09508950E944C05689414
:100A9000B1110C942A0608950E940F0688F09F5702
:100AA00098F0B92F9927B751B0F0E1F0660F771F92
:100AB000881F991F1AF0BA95C9F714C0B13091F088
:100AC0000E942906B1E008950C942906672F782F1B
:100AD0008827B85F39F0B93FCCF38695779567954D
:100AE000B395D9F73EF490958095709561957F4FB9
:100AF0008F4F9F4F0895E89409C097FB3EF490955F
:100B00008095709561957F4F8F4F9F4F9923A9F0E6
:100B1000F92F96E9BB279395F69587957795679575
:100B2000B795F111F8CFFAF4BB0F11F460FF1BC0B9
:100B30006F5F7F4F8F4F9F4F16C0882311F096E94C
:100B400011C0772321F09EE8872F762F05C06623FA
:100B500071F096E8862F70E060E02AF09A95660FB3
:100B6000771F881FDAF7880F9695879597F908956C
:100B700097F99F6780E870E060E008959FEF80EC50
:100B80000895DF93CF931F930F93FF92EF92DF921D
:100B90007B018C01689406C0DA2EEF010E944B069F
:100BA000FE01E894A5912591359145915591A6F3C3
:100BB000EF010E940C04FE019701A801DA9469F785
:100BC000DF90EF90FF900F911F91CF91DF910895EB
:100BD00000240A941616170618060906089500241C
:100BE0000A9412161306140605060895092E039496
:100BF000000C11F4882352F0BB0F40F4BF2B11F40A
:100C000060FF04C06F5F7F4F8F4F9F4F089557FD68
:100C10009058440F551F59F05F3F71F04795880F6A
:100C200097FB991F61F09F3F79F087950895121601
:100C300013061406551FF2CF4695F1DF08C01616AD
:100C400017061806991FF1CF86957105610508945E
:100C50000895E894BB2766277727CB0197F9089575
:100C60009B01AC0160E070E080E89FE30C94D3044A
:100C70000E944B060C94F6050E94E80538F00E948D
:100C8000EF0520F0952311F00C94B8050C94BE05E7
:100C900011240C942A060E94070670F3959FC1F355
:100CA000950F50E0551F629FF001729FBB27F00D1A
:100CB000B11D639FAA27F00DB11DAA1F649F66276F
:100CC000B00DA11D661F829F2227B00DA11D621FBE
:100CD000739FB00DA11D621F839FA00D611D221F78
:100CE000749F3327A00D611D231F849F600D211D5C
:100CF000822F762F6A2F11249F5750409AF0F1F0DF
:100D000088234AF0EE0FFF1FBB1F661F771F881F47
:100D100091505040A9F79E3F510580F00C94B805C2
:100D20000C942A065F3FE4F3983ED4F386957795BA
:100D30006795B795F795E7959F5FC1F7FE2B880FED
:100D4000911D9695879597F908959B01AC010C9498
:100D50003806052E97FB1EF400940E94C00657FD2E
:100D600007D00E94C80607FC03D04EF40C94C006BE
:100D700050954095309521953F4F4F4F5F4F0895C7
:100D800090958095709561957F4F8F4F9F4F0895F7
:100D9000A1E21A2EAA1BBB1BFD010DC0AA1FBB1F7F
:100DA000EE1FFF1FA217B307E407F50720F0A21BF1
:100DB000B30BE40BF50B661F771F881F991F1A945E
:100DC00069F760957095809590959B01AC01BD0188
:100DD000CF010895A0E0B0E0E0EFF6E00C94D10977
:100DE000AE014B5F5F4FFA0161917191AF0180914C
:100DF0003601909137010E943007E2E00C94ED0932
:100E00000F931F93CF93DF93E0913601F091370159
:100E1000238121FF1BC08C01D0E0C0E0F80181914B
:100E20008F016091360170913701DB011896ED91C9
:100E3000FC911997882331F00995892B79F3DFEF1D
:100E4000CFEFECCF8AE00995892B19F08FEF9FEF58
:100E500002C08D2F9C2FDF91CF911F910F9108958C
:100E6000ABE0B0E0E6E3F7E00C94C1096C017B0174
:100E70008A01FC0117821682838181FFCCC1CE01D9
:100E800001963C01F6019381F70193FD859193FF53
:100E900081917F01882309F4BAC1853239F493FD29
:100EA000859193FF81917F01853229F4B60190E00D
:100EB0000E942709E7CF912C212C312CFFE1F3155B
:100EC000D8F08B3279F038F4803279F08332A1F4A3
:100ED000232D20611DC08D3261F0803369F4232DF4
:100EE000216016C0832D8260382EE32DE4603E2EF3
:100EF0002AC0F32DF8601DC037FC2DC020ED280F4F
:100F00002A3040F08E32B9F436FC81C1232D2064A2
:100F1000322E19C036FE06C08AE0989E200D11249C
:100F2000922E11C0EAE02E9E200D1124222EF32DC8
:100F3000F0623F2E08C08C3621F4832D8068382E55
:100F400002C0883641F4F70193FD859193FF8191AA
:100F50007F018111B3CF982F9F7D9554933028F452
:100F60000C5F1F4F9FE399830DC0833631F08337A9
:100F700071F0833509F059C021C0F801808189835F
:100F80000E5F1F4F88248394912C530113C02801B6
:100F9000F2E04F0E511CF801A080B18036FE03C074
:100FA000692D70E002C06FEF7FEFC5010E941C0940
:100FB0004C018201F32DFF773F2E16C0280122E05D
:100FC000420E511CF801A080B18036FE03C0692D8D
:100FD00070E002C06FEF7FEFC5010E9411094C0164
:100FE000F32DF0683F2E820133FC1BC0822D90E070
:100FF00088169906B0F4B60180E290E00E942709B5
:101000002A94F4CFF50137FC859137FE81915F0179
:10101000B60190E00E94270921102A9421E0821A4B
:1010200091088114910471F7E8C0843611F0893673
:1010300041F5F80137FE07C060817181828193819B
:101040000C5F1F4F08C060817181072E000C880B58
:10105000990B0E5F1F4FF32DFF763F2E97FF09C0B0
:1010600090958095709561957F4F8F4F9F4FF06859
:101070003F2E2AE030E0A3010E946309882E8618E3
:1010800045C0853731F4232D2F7EB22E2AE030E083
:1010900025C0932D997FB92E8F36C1F018F488356D
:1010A00079F0B5C0803719F0883721F0B0C0E92F4A
:1010B000E061BE2EB4FE0DC0FB2DF460BF2E09C052
:1010C00034FE0AC0292F2660B22E06C028E030E088
:1010D00005C020E130E002C020E132E0F801B7FEB7
:1010E00007C060817181828193810C5F1F4F06C0B0
:1010F0006081718180E090E00E5F1F4FA3010E942C
:101100006309882E8618FB2DFF773F2E36FE0DC013
:10111000232D2E7FA22E891458F434FE0BC032FCEE
:1011200009C0832D8E7EA82E05C0B82CA32C03C029
:10113000B82C01C0B92CA4FE0FC0FE01E80DF11DB2
:101140008081803321F49A2D997EA92E09C0A2FEB8
:1011500006C0B394B39404C08A2D867809F0B39482
:10116000A3FC11C0A0FE06C0B21488F4280C922C77
:101170009B180EC0B21460F4B60180E290E00E94A9
:101180002709B394F7CFB21418F42B1802C0982C87
:10119000212CA4FE10C0B60180E390E00E94270934
:1011A000A2FE17C0A1FC03C088E790E002C088E55A
:1011B00090E0B6010CC08A2D867859F0A1FE02C0DD
:1011C0008BE201C080E2A7FC8DE2B60190E00E94B4
:1011D0002709891438F4B60180E390E00E942709BA
:1011E0009A94F7CF8A94F301E80DF11D8081B6013E
:1011F00090E00E9427098110F5CF222009F442CE09
:10120000B60180E290E00E9427092A94F6CFF60109
:101210008681978102C08FEF9FEF2B96E2E10C94BD
:10122000DD09FC010590615070400110D8F78095F0
:1012300090958E0F9F1F0895FC01615070400190A2
:101240000110D8F7809590958E0F9F1F08950F93EA
:101250001F93CF93DF93FB01238121FD03C08FEF09
:101260009FEF2CC022FF16C0468157812481358113
:101270004217530744F4A081B1819D012F5F3F4F76
:10128000318320838C93268137812F5F3F4F3783B3
:10129000268314C08B01EC01FB010084F185E02D55
:1012A0000995892BE1F6D80116968D919C91179797
:1012B000019617969C938E931697CE01DF91CF914E
:1012C0001F910F910895FA01AA27283051F120317A
:1012D00081F1E8946F936E7F6E5F7F4F8F4F9F4FCA
:1012E000AF4FB1E03ED0B4E03CD0670F781F891F0C
:1012F0009A1FA11D680F791F8A1F911DA11D6A0FDA
:10130000711D811D911DA11D20D009F468943F918C
:101310002AE0269F11243019305D3193DEF6CF018B
:101320000895462F4770405D4193B3E00FD0C9F751
:10133000F6CF462F4F70405D4A3318F0495D31FDBE
:101340004052419302D0A9F7EACFB4E0A695979511
:10135000879577956795BA95C9F7009761057105E7
:1013600008959B01AC010A2E069457954795379531
:101370002795BA95C9F7620F731F841F951FA01D8B
:1013800008952F923F924F925F926F927F928F9229
:101390009F92AF92BF92CF92DF92EF92FF920F9304
:1013A0001F93CF93DF93CDB7DEB7CA1BDB0B0FB60E
:1013B000F894DEBF0FBECDBF09942A8839884888CB
:1013C0005F846E847D848C849B84AA84B984C88461
:1013D000DF80EE80FD800C811B81AA81B981CE0F58
:1013E000D11D0FB6F894DEBF0FBECDBFED0108953D
:0413F000F894FFCF9F
:1013F40001000000000300000000A5009D000000A3
:081404004F4B0D0025640A00A6
:00000001FF
