:100000000C9452000C946F000C946F000C946F00D1
:100010000C946F000C946F000C946F000C946F00A4
:100020000C946F000C946F000C946F000C9495026C
:100030000C946F000C946F000C946F000C946F0084
:100040000C946F000C946F000C946F000C946F0074
:100050000C946F000C946F000C946F000C946F0064
:100060000C946F000C946F0035043A044E046E0437
:10007000B404FA043D05084AD73B3BCE016E84BC6C
:10008000BFFDC12F3D6C74319ABD56833DDA3D00F2
:10009000C77F11BED9E4BB4C3E916BAAAABE00003B
:1000A00000803F0011241FBECFEFD8E0DEBFCDBFE0
:1000B00021E0A8E1B1E001C01D92A034B207E1F750
:1000C00011E0A0E0B1E0E2ECF0E102C005900D9299
:1000D000A831B107D9F70E94A3020C945F080C94D1
:1000E00000008091BC0087FFFCCF08958093BB0087
:1000F00084E88093BC000E9471009091B900987FC1
:1001000081E0983209F480E00895CF93C82F1092CF
:10011000BC0084EA8093BC000E9471008091B90009
:10012000887F883011F081E00FC0C093BB0084E865
:100130008093BC000E9471008091B900887F883153
:1001400011F0803481F780E0CF9108958091C00054
:1001500087FFFCCF8091C60090E008959091C00089
:1001600095FFFCCF8093C60080E090E008954F9209
:100170005F926F927F928F929F92AF92BF92CF9237
:10018000DF92EF92FF92CF93DF93CDB7DEB7609708
:100190000FB6F894DEBF0FBECDBF6B017C0140905F
:1001A00032015090330160903401709035016091BC
:1001B0002E0170912F018091300190913101209199
:1001C00036013091370140913801509139018090CA
:1001D000200190902101A0902201B09023018D86F2
:1001E0009E86AF86B88A80901C0190901D01A090D9
:1001F0001E01B0901F0189829A82AB82BC828090DE
:100200002A0190902B01A0902C01B0902D018D829D
:100210009E82AF82B8868090360190903701A09080
:100220003801B090390189869A86AB86BC860E94D7
:10023000B8072D853E854F8558890E94B8074B0128
:100240005C01A7019601C301B2010E94B8079B019E
:10025000AC01C501B4010E9447054B015C01298135
:100260003A814B815C81C701B6010E9446052D8110
:100270003E814F8158850E94B80729853A854B8574
:100280005C850E942A069B01AC01C501B4010E9455
:100290004705609318017093190180931A01909398
:1002A0001B012091200130912101409122015091A8
:1002B0002301C701B6010E94470560932001709396
:1002C00021018093220190932301C0921C01D092BE
:1002D0001D01E0921E01F0921F01609120017091BA
:1002E0002101809122019091230120E030E048E437
:1002F00053E40E94AB07181644F4109220011092A8
:10030000210110922201109223016091200170912D
:100310002101809122019091230120E030E048E406
:1003200053EC0E94250687FF08C01092200110920E
:100330002101109222011092230160911801709105
:10034000190180911A0190911B0120E030E04EEFDD
:1003500052E40E94470560960FB6F894DEBF0FBEC8
:10036000CDBFDF91CF91FF90EF90DF90CF90BF9006
:10037000AF909F908F907F906F905F904F90089577
:10038000CF93DF93C82F80ED0E948500882329F04A
:1003900025E02A95F1F70000F6CF80ED0E94850058
:1003A0008C2F0E94760081ED0E94850084EC809362
:1003B000BC000E947100C091BB00D0E0DC2FCC27B4
:1003C00084E88093BC000E9471008091BB0094E996
:1003D0009093BC009E01282BC901DF91CF91089515
:1003E0001F93CF93DF93182FD62F80ED0E948500A7
:1003F000882329F085E08A95F1F70000F6CF80ED9B
:100400000E948500C82F812F0E9476008D2F0E94A8
:10041000760084E98093BC008C2FDF91CF911F91EF
:1004200008958F929F92AF92BF92CF92DF92EF92F8
:10043000FF92CF93DF938BE30E94C001EC018DE329
:100440000E94C0018FE30E94C0017C0183E40E94EE
:10045000C00185E40E94C0016C0187E40E94C001D4
:10046000B601DD0C880B990B0E94D40620E030E029
:1004700043E053E40E942A064B015C01B701FF0CE4
:10048000880B990B0E94D4066B017C01BE01DD0F25
:10049000880B990B0E94D406A70196010E94C605FD
:1004A0006B017C01C501B4010E949C06072E000C63
:1004B000880B990B0E94D4062CEA35EC47E257E3EF
:1004C0000E94B80720E030E044EB52E40E94470568
:1004D0002DEC3CEC4CE45EE30E94B8074B015C0160
:1004E00020E030E044E353E4C701B6010E94B807BE
:1004F0002BED3FE049E450E40E942A062DEC3CEC51
:100500004CE45FE30E94B8079B01AC01C501B40154
:100510000E944705DF91CF91FF90EF90DF90CF9041
:10052000BF90AF909F908F9008951F920F920FB63B
:100530000F92112410920501109204010F900FBE2A
:100540000F901F901895789488B1806388B988E4DB
:100550008093B8008FE39CE90197F1F700C0000099
:100560006BE08BE60E94F00165E08AE10E94F001F9
:1005700060E08BE10E94F00160E08CE10E94F001FC
:1005800087E690E09093C5008093C40088E1809353
:10059000C1008EE08093C20086E091E090933B0121
:1005A00080933A0190933D0180933C0184E191E076
:1005B0000E942F08539A239A8091B0008C7F8093D9
:1005C000B0008091B100877F8093B1008091B0002E
:1005D00081608093B0008091B0008F738093B000F1
:1005E0008091B0008F7C8093B0008091B0008068D3
:1005F0008093B0008091B00080638093B00081E070
:1006000090E090932501809324018091B100887F30
:100610008093B1008091240190912501883091054B
:10062000E1F040F40097A9F0019721F58091B10025
:1006300081601EC0811521E0920799F0811524E0A8
:10064000920799F080349105A9F48091B1008360FC
:100650000FC08091B100887F0BC08091B100826093
:1006600007C08091B100846003C08091B1008560B3
:100670008093B100569A559A84B58C7F84BD85B518
:10068000877F85BD84B5816084BD84B58F7384BD4B
:1006900084B58F7C84BD84B5806884BD84B5806357
:1006A00084BD81E090E0909325018093240185B57D
:1006B000887F85BD80912401909125018830910526
:1006C000C9F038F4009799F00197E9F485B5816095
:1006D00019C0811521E0920781F0811524E092076D
:1006E00079F08034910579F485B583600BC085B5C8
:1006F000887F08C085B5826005C085B5846002C06A
:1007000085B5856085BD809180008C7F8093800059
:1007100080918100877E8093810080918100886034
:100720008093810088E090E09093270180932601D8
:1007300080918100887F8093810080912601909133
:10074000270188309105E1F040F40097A9F0019766
:1007500021F58091810081601EC0811521E0920702
:1007600099F0811524E0920799F080349105A9F45D
:100770008091810083600FC080918100887F0BC0D1
:1007800080918100826007C080918100846003C0F5
:1007900080918100856080938100809180008F73BB
:1007A00080938000809180008F7C80938000809176
:1007B0008000806480938000809180008F7C809393
:1007C0008000B19880916F00826080936F008AE012
:1007D00097EDA3EABBE38093360190933701A09392
:1007E0003801B093390183E393E3A3EDB0E4809340
:1007F000320190933301A0933401B09335011092EC
:100800002E0110922F01109230011092310180E5DB
:100810009DE8A7E1BDE380932A0190932B01A0936B
:100820002C01B0932D0185E090E0909329018093F5
:100830002801812C912C6EEBA62E62E4B62E412C61
:10084000512C7AEA672E72E4772EC5E0D0E001E001
:1008500010E0E0912801F0912901E730F10508F05E
:1008600010C1EC5CFF4F0C942908D0932901C09370
:10087000280107C18091040190910501892B29F07D
:1008800085E08A95F1F70000F5CF40920001509283
:100890000101609202017092030113C08091040172
:1008A00090910501892B29F095E09A95F1F70000C8
:1008B000F5CF8092000190920101A0920201B092C6
:1008C00003010E9411029B01AC0160910001709133
:1008D000010180910201909103019FC08091040168
:1008E00090910501892B29F025E02A95F1F7000068
:1008F000F5CF0E9411029B01AC0160910001709143
:10090000010180910201909103010E9446050E941D
:10091000B7006B017C0120E030E04CE453E40E941E
:10092000AB0718168CF020E030E04CE452E4C7012D
:10093000B6010E94250687FF0DC0C12CD12C5CE4B6
:10094000E52E52E4F52E06C0C12CD12C4CE4E42E49
:1009500043E4F42EC701B6010E94A3068CEE860F75
:1009600087BD88BD6C5E84C08091040190910501B3
:10097000892B29F085E08A95F1F70000F5CF0E94D8
:1009800011029B01AC016091000170910101809105
:100990000201909103010E9446050E94B7006B017D
:1009A0007C0120E030E04CE453E40E94AB071816D1
:1009B0008CF020E030E04CE452E4C701B6010E9424
:1009C000250687FF0DC0C12CD12C3CE4E32E32E478
:1009D000F32E06C0C12CD12C2CE4E22E23E4F22EFF
:1009E000C701B6010E94A30684E1860F87BD88BDBA
:1009F00064513EC08091040190910501892B29F03A
:100A000095E09A95F1F70000F5CF0E9411029B0145
:100A1000AC0160E070E084EB92E40E9446050E9425
:100A2000B7006B017C0120E030E04CE453E40E940D
:100A3000AB0718168CF020E030E04CE452E4C7011C
:100A4000B6010E94250687FF0DC0C12CD12C9CE465
:100A5000E92E92E4F92E06C0C12CD12C8CE4E82EAC
:100A600083E4F82EC701B6010E94A30667BD68BDE6
:100A70006093B3006093B40004C0109229011092F7
:100A800028011093050100930401E3CE5058BB27C1
:100A9000AA270E945E050C9471070E94630738F034
:100AA0000E946A0720F039F49F3F19F426F40C9451
:100AB00039070EF4E095E7FB0C943307E92F0E9409
:100AC000820758F3BA17620773078407950720F067
:100AD00079F4A6F50C94A4070EF4E0950B2EBA2F2A
:100AE000A02D0B01B90190010C01CA01A001112434
:100AF000FF27591B99F0593F50F4503E68F11A16E0
:100B0000F040A22F232F342F4427585FF3CF469570
:100B100037952795A795F0405395C9F77EF41F1692
:100B2000BA0B620B730B840BBAF09150A1F0FF0F5C
:100B3000BB1F661F771F881FC2F70EC0BA0F621F48
:100B4000731F841F48F4879577956795B795F79538
:100B50009E3F08F0B0CF9395880F08F09927EE0FCD
:100B60009795879508950E94630760F080E891E06B
:100B700009F49EEF0E946A0728F040E851E071F402
:100B80005EEF0CC00C9439070C94A407E92FE078B1
:100B90000E94820740F3092E052AB1F32617370772
:100BA0004807590738F00E2E07F8E02569F0E025D0
:100BB000E0640AC0EF6307F8009407FADB01B901AB
:100BC0009D01DC01CA01AD01EF930E9441060E9424
:100BD00071070E94F6055F91552339F02BED3FE038
:100BE00049E450FD49EC0C9447050895DF93DD2757
:100BF000B92FBF7740E85FE31616170648075B0773
:100C000018F4D92F0E94B0079F938F937F936F930F
:100C10000E942508E6E7F0E00E943C070E94710769
:100C20002F913F914F915F910E94CB07DD2351F0AF
:100C30009058A2EA2AED3FE049EC5FE3D0785D27C7
:100C40000E945E05DF910C9471070E940F0708F463
:100C500081E008950E943E060C9471070E946A0785
:100C600058F00E94630740F029F45F3F29F00C948C
:100C7000330751110C94A5070C9439070E94820781
:100C800068F39923B1F3552391F3951B550BBB27BB
:100C9000AA2762177307840738F09F5F5F4F220F00
:100CA000331F441FAA1FA9F335D00E2E3AF0E0E8F7
:100CB00032D091505040E695001CCAF72BD0FE2F41
:100CC00029D0660F771F881FBB1F261737074807D5
:100CD000AB07B0E809F0BB0B802DBF01FF2793588D
:100CE0005F4F3AF09E3F510578F00C9433070C9417
:100CF000A5075F3FE4F3983ED4F386957795679513
:100D0000B795F7959F5FC9F7880F911D96958795C1
:100D100097F90895E1E0660F771F881FBB1F6217E0
:100D200073078407BA0720F0621B730B840BBA0B9E
:100D3000EE1F88F7E09508950E94A3066894B1110C
:100D40000C94A50708950E948A0788F09F5798F091
:100D5000B92F9927B751B0F0E1F0660F771F881FC0
:100D6000991F1AF0BA95C9F714C0B13091F00E94DA
:100D7000A407B1E008950C94A407672F782F882763
:100D8000B85F39F0B93FCCF3869577956795B39501
:100D9000D9F73EF490958095709561957F4F8F4F70
:100DA0009F4F0895E89409C097FB3EF49095809575
:100DB000709561957F4F8F4F9F4F9923A9F0F92F21
:100DC00096E9BB279395F695879577956795B7959F
:100DD000F111F8CFFAF4BB0F11F460FF1BC06F5F85
:100DE0007F4F8F4F9F4F16C0882311F096E911C097
:100DF000772321F09EE8872F762F05C0662371F0B8
:100E000096E8862F70E060E02AF09A95660F771FCB
:100E1000881FDAF7880F9695879597F90895990FA7
:100E20000008550FAA0BE0E8FEEF16161706E807B4
:100E3000F907C0F012161306E407F50798F0621BD5
:100E4000730B840B950B39F40A2661F0232B242BAA
:100E5000252B21F408950A2609F4A140A6958FEFC9
:100E6000811D811D089597F99F6780E870E060E01B
:100E700008959FEF80EC0895DF93CF931F930F9316
:100E8000FF92EF92DF927B018C01689406C0DA2E0C
:100E9000EF010E94CB07FE01E894A59125913591C1
:100EA00045915591A6F3EF010E945E05FE01970161
:100EB000A801DA9469F7DF90EF90FF900F911F91EE
:100EC000CF91DF91089500240A941616170618068C
:100ED0000906089500240A9412161306140605063E
:100EE0000895092E0394000C11F4882352F0BB0FCF
:100EF00040F4BF2B11F460FF04C06F5F7F4F8F4F32
:100F00009F4F089557FD9058440F551F59F05F3F6C
:100F100071F04795880F97FB991F61F09F3F79F01B
:100F200087950895121613061406551FF2CF46959D
:100F3000F1DF08C0161617061806991FF1CF86951F
:100F40007105610508940895E894BB276627772703
:100F5000CB0197F908950E940F0708F48FEF0895C9
:100F60009B01AC0160E070E080E89FE30C942A06EE
:100F70000E94CB070C9471070E94630738F00E940F
:100F80006A0720F0952311F00C9433070C9439076D
:100F900011240C94A5070E94820770F3959FC1F35A
:100FA000950F50E0551F629FF001729FBB27F00D17
:100FB000B11D639FAA27F00DB11DAA1F649F66276C
:100FC000B00DA11D661F829F2227B00DA11D621FBB
:100FD000739FB00DA11D621F839FA00D611D221F75
:100FE000749F3327A00D611D231F849F600D211D59
:100FF000822F762F6A2F11249F5750409AF0F1F0DC
:1010000088234AF0EE0FFF1FBB1F661F771F881F44
:1010100091505040A9F79E3F510580F00C94330742
:101020000C94A5075F3FE4F3983ED4F3869577953B
:101030006795B795F795E7959F5FC1F7FE2B880FEA
:10104000911D9695879597F908959B01AC010C9495
:10105000B807EE0FFF1F0590F491E02D09940F9350
:101060001F93CF93DF93E0913C01F0913D012381E9
:1010700021FF1BC08C01D0E0C0E0F80181918F01FD
:1010800060913C0170913D01DB011896ED91FC915E
:101090001997882331F00995892B79F3DFEFCFEF8A
:1010A000ECCF8AE00995892B19F08FEF9FEF02C0F2
:1010B0008D2F9C2FDF91CF911F910F910895F89460
:0210C000FFCF60
:1010C2000000B44201000000000300000000AE0076
:0810D200A60000004F4B0D00C9
:00000001FF
