:100000000C9434000C9446000C9446000C9446006A
:100010000C9446000C9446000C9446000C94460048
:100020000C9446000C9446000C9446000C94460038
:100030000C9446000C9446000C9448000C94460026
:100040000C9446000C9446000C9446000C94460018
:100050000C9446000C9446000C9446000C94460008
:100060000C9446000C94460011241FBECFEFD8E03C
:10007000DEBFCDBF21E0A0E0B1E001C01D92A23003
:10008000B207E1F70E9466000C94B7020C940000DE
:100090001F920F920FB60F9211242F938F939F935D
:1000A0002FEF81EE94E0215080409040E1F700C0B6
:1000B00000009BB180E189278BB9A9989F918F910E
:1000C0002F910F900FBE0F901F9018958AB18065E9
:1000D0008AB984B58C7F84BD85B5877F85BD84B59D
:1000E000826084BD84B58F7384BD84B58F7C84BDEC
:1000F00084B5806484BD84B58F7C84BDA9988091CB
:100100006E00826080936E0080E094E09093010125
:100110008093000185B5887F85BD80910001909115
:10012000010188309105C9F038F4009799F00197E2
:10013000E9F485B5816019C0811521E0920781F04D
:10014000811524E0920779F08034910579F485B522
:1001500083600BC085B5887F08C085B5826005C007
:1001600085B5846002C085B5856085BD209100019C
:1001700030910101220F331F40E050E060E074E253
:1001800084EF90E00E947602CA01B9010E947D01CD
:100190002AE037ED43E25CE30E94090220E030E010
:1001A00040E85FE30E94E0000E944C0167BD789444
:1001B0008FE99FE00197F1F700C00000F9CF505898
:1001C000BB27AA270E94F7000C94CF010E94C1010F
:1001D00038F00E94C80120F039F49F3F19F426F44A
:1001E0000C94BE010EF4E095E7FB0C94B801E92FE6
:1001F0000E94E00158F3BA17620773078407950756
:1002000020F079F4A6F50C9402020EF4E0950B2E82
:10021000BA2FA02D0B01B90190010C01CA01A00158
:100220001124FF27591B99F0593F50F4503E68F1B3
:100230001A16F040A22F232F342F4427585FF3CFF4
:10024000469537952795A795F0405395C9F77EF4C5
:100250001F16BA0B620B730B840BBAF09150A1F00E
:10026000FF0FBB1F661F771F881FC2F70EC0BA0F94
:10027000621F731F841F48F4879577956795B7951C
:10028000F7959E3F08F0B0CF9395880F08F0992717
:10029000EE0F9795879508950E94E80188F09F5783
:1002A00098F0B92F9927B751B0F0E1F0660F771F9A
:1002B000881F991F1AF0BA95C9F714C0B13091F090
:1002C0000E940202B1E008950C940202672F782F79
:1002D0008827B85F39F0B93FCCF386957795679555
:1002E000B395D9F73EF490958095709561957F4FC1
:1002F0008F4F9F4F0895E89409C097FB3EF4909567
:100300008095709561957F4F8F4F9F4F9923A9F0EE
:10031000F92F96E9BB279395F6958795779567957D
:10032000B795F111F8CFFAF4BB0F11F460FF1BC0C1
:100330006F5F7F4F8F4F9F4F16C0882311F096E954
:1003400011C0772321F09EE8872F762F05C0662302
:1003500071F096E8862F70E060E02AF09A95660FBB
:10036000771F881FDAF7880F9695879597F9089574
:1003700097F99F6780E870E060E008959FEF80EC58
:10038000089500240A9416161706180609060895FB
:1003900000240A9412161306140605060895092E61
:1003A0000394000C11F4882352F0BB0F40F4BF2BD0
:1003B00011F460FF04C06F5F7F4F8F4F9F4F089510
:1003C00057FD9058440F551F59F05F3F71F0479506
:1003D000880F97FB991F61F09F3F79F087950895EB
:1003E000121613061406551FF2CF4695F1DF08C00A
:1003F000161617061806991FF1CF86957105610527
:1004000008940895E894BB2766277727CB0197F9CE
:1004100008950E941C020C94CF010E94C10138F083
:100420000E94C80120F0952311F00C94B8010C949F
:10043000BE0111240C9403020E94E00170F3959F09
:10044000C1F3950F50E0551F629FF001729FBB27CB
:10045000F00DB11D639FAA27F00DB11DAA1F649F67
:100460006627B00DA11D661F829F2227B00DA11D1A
:10047000621F739FB00DA11D621F839FA00D611DA0
:10048000221F749F3327A00D611D231F849F600DC1
:10049000211D822F762F6A2F11249F5750409AF0EA
:1004A000F1F088234AF0EE0FFF1FBB1F661F771F76
:1004B000881F91505040A9F79E3F510580F00C9441
:1004C000B8010C9403025F3FE4F3983ED4F38695A1
:1004D00077956795B795F795E7959F5FC1F7FE2BE1
:1004E000880F911D9695879597F90895052E97FB8E
:1004F0001EF400940E948D0257FD07D00E949502C1
:1005000007FC03D04EF40C948D0250954095309525
:1005100021953F4F4F4F5F4F08959095809570956F
:1005200061957F4F8F4F9F4F0895A1E21A2EAA1B0E
:10053000BB1BFD010DC0AA1FBB1FEE1FFF1FA21793
:10054000B307E407F50720F0A21BB30BE40BF50B90
:10055000661F771F881F991F1A9469F76095709519
:10056000809590959B01AC01BD01CF010895F89451
:02057000FFCFBB
:00000001FF
