:100000000C944B000C9468000C9468000C946800ED
:100010000C9468000C9468000C9468000C946800C0
:100020000C9468000C9468000C9468000C94FF0019
:100030000C9468000C9468000C9468000C946800A0
:100040000C9468000C9468000C9468000C94680090
:100050000C9468000C9468000C9468000C94680080
:100060000C9468000C946800084AD73B3BCE016EA4
:1000700084BCBFFDC12F3D6C74319ABD56833DDAFF
:100080003D00C77F11BED9E4BB4C3E916BAAAABE0E
:10009000000000803F0011241FBECFEFD8E0DEBF7C
:1000A000CDBF21E0A4E1B1E001C01D92AA33B207A7
:1000B000E1F711E0A0E0B1E0E2E2FFE002C005906C
:1000C0000D92A431B107D9F70E940D010C948F074E
:1000D0000C9400008093BB0084E88093BC00809166
:1000E000BC0087FFFCCF9091B900987F81E09832E7
:1000F00009F480E008951092BC0094EA9093BC004B
:100100009091BC0097FFFCCF9091B900987F9830F8
:1001100011F081E008958093BB0084E88093BC00D7
:100120008091BC0087FFFCCF8091B900887F883127
:1001300011F0803471F780E008958091C00087FF4E
:10014000FCCF8091C60090E008959091C00095FF8B
:10015000FCCF8093C60080E090E00895CF93C82F35
:1001600080ED0E947B00882329F085E08A95F1F7D5
:100170000000F6CF80ED0E947B008C2F0E946A0069
:1001800081ED0E947B0084EC8093BC008091BC00D8
:1001900087FFFCCF8091BB0090E0982F882724E850
:1001A0002093BC002091BC0027FFFCCF2091BB0016
:1001B00034E93093BC00822BCF9108951F93CF93E5
:1001C000DF93182FD62F80ED0E947B00882329F023
:1001D00085E08A95F1F70000F6CF80ED0E947B0064
:1001E000C82F812F0E946A008D2F0E946A0084E927
:1001F0008093BC008C2FDF91CF911F9108951F92A7
:100200000F920FB60F92112410920101109200016B
:100210000F900FBE0F901F901895CF93DF93CDB71F
:10022000DEB760970FB6F894DEBF0FBECDBF7894EF
:1002300088B1806388B988E48093B8008FE39CE933
:100240000197F1F700C000006BE08BE60E94DE0032
:1002500065E08AE10E94DE0060E08BE10E94DE0042
:1002600060E08CE10E94DE0087E690E09093C5009C
:100270008093C40088E18093C1008EE08093C20027
:1002800082E091E09093350180933401909337019F
:100290008093360180E191E00E945F07539A239A90
:1002A0008091B0008C7F8093B0008091B100877FF7
:1002B0008093B1008091B00081608093B000809104
:1002C000B0008F738093B0008091B0008F7C8093DA
:1002D000B0008091B00080688093B0008091B00041
:1002E00080638093B00081E090E09093150180934B
:1002F00014018091B100887F8093B1008091140136
:100300009091150188309105E1F040F40097A9F033
:10031000019721F58091B10081601EC0811521E017
:10032000920799F0811524E0920799F080349105A5
:10033000A9F48091B10083600FC08091B100887FE3
:100340000BC08091B100826007C08091B1008460D1
:1003500003C08091B10085608093B100569A559A90
:1003600084B58C7F84BD85B5877F85BD84B581606C
:1003700084BD84B58F7384BD84B58F7C84BD84B502
:10038000806884BD84B5806384BD81E090E09093F3
:1003900015018093140185B5887F85BD8091140176
:1003A0009091150188309105C9F038F4009799F0C3
:1003B0000197E9F485B5816019C0811521E09207A4
:1003C00081F0811524E0920779F08034910579F469
:1003D00085B583600BC085B5887F08C085B5826010
:1003E00005C085B5846002C085B5856085BD8091F6
:1003F00080008C7F8093800080918100877E809335
:1004000081008091810088608093810088E090E085
:10041000909317018093160180918100887F8093CB
:100420008100809116019091170188309105E1F0CB
:1004300040F40097A9F0019721F580918100816037
:100440001EC0811521E0920799F0811524E09207E2
:1004500099F080349105A9F48091810083600FC0E8
:1004600080918100887F0BC080918100826007C0ED
:1004700080918100846003C08091810085608093B9
:100480008100809180008F73809380008091800034
:100490008F7C8093800080918000806480938000B6
:1004A000809180008F7C80938000B19880916F0054
:1004B000826080936F00209116013091170140E017
:1004C00050E060E074E284EF90E00E941E07CA01F1
:1004D000B9010E94C9052AE037ED43EA5BE30E94B7
:1004E000AD0620E030E040E85FE30E943B040E945C
:1004F000980570938900609388008AE097EDA3EADD
:10050000BBE38093300190933101A0933201B0930B
:10051000330183E393E3A3EDB0E480932C01909344
:100520002D01A0932E01B0932F011092280110925B
:10053000290110922A0110922B0180E59DE8A7E184
:10054000BDE38093240190932501A0932601B093ED
:10055000270101E010E08091000190910101892BB9
:1005600029F085E08A95F1F70000F5CF8BE30E9432
:10057000AE007C018DE30E94AE008FE30E94AE00CE
:100580006C0183E40E94AE0085E40E94AE005C0131
:1005900087E40E94AE00B501BB0C880B990B0E944A
:1005A000C90520E030E043E053E40E941F054B0101
:1005B0005C01B601DD0C880B990B0E94C9052B016B
:1005C0003C01B701FF0C880B990B0E94C905A301E0
:1005D00092010E94BB046B017C01C501B4010E9421
:1005E0009105072E000C880B990B0E94C9052CEA77
:1005F00035EC47E257E30E94AD0620E030E044EBE3
:1006000052E40E943C042DEC3CEC4CE45EE30E947E
:10061000AD064B015C0120E030E044E353E4C70148
:10062000B6010E94AD062BED3FE049E450E40E9484
:100630001F052DEC3CEC4CE45FE30E94AD069B01F2
:10064000AC01C501B4010E943C049B01AC0160E017
:1006500070E084EB92E40E943B046B017C014090CB
:100660002C0150902D0160902E0170902F0160910F
:1006700028017091290180912A0190912B012091EC
:10068000300130913101409132015091330180901D
:10069000200190902101A0902201B09023018D862D
:1006A0009E86AF86B88A80901C0190901D01A09014
:1006B0001E01B0901F0189829A82AB82BC82809019
:1006C000240190902501A0902601B09027018D82F1
:1006D0009E82AF82B8868090300190903101A090C8
:1006E0003201B090330189869A86AB86BC860E941F
:1006F000AD062D853E854F8558890E94AD064B017C
:100700005C01A3019201C701B6010E94AD069B01E5
:10071000AC01C501B4010E943C044B015C0129817C
:100720003A814B815C81C701B6010E943B042D8157
:100730003E814F8158850E94AD0629853A854B85BB
:100740005C850E941F059B01AC01C501B4010E949C
:100750003C04609318017093190180931A019093DF
:100760001B012091200130912101409122015091E3
:100770002301C701B6010E943C04609320017093DD
:1007800021018093220190932301C0921C01D092F9
:100790001D01E0921E01F0921F01609120017091F5
:1007A0002101809122019091230120E030E048E472
:1007B00053E40E94A006181644F4109220011092EF
:1007C0002101109222011092230160912001709169
:1007D0002101809122019091230120E030E048E442
:1007E00053EC0E941A0587FF08C010922001109256
:1007F0002101109222011092230160911801709141
:10080000190180911A0190911B0120E030E04EEF18
:1008100052E40E943C046B017C0120E030E04CE497
:1008200053E40E94A00618168CF020E030E04CE45F
:1008300052E4C701B6010E941A0587FF0DC0C12C02
:10084000D12C9CE4E92E92E4F92E06C0C12CD12CC7
:100850008CE4E82E83E4F82EC701B6010E949805C7
:1008600067BD68BD6093B3006093B400109301014D
:100870000093000170CE5058BB27AA270E94530452
:100880000C9466060E94580638F00E945F0620F01D
:1008900039F49F3F19F426F40C942E060EF4E095DB
:1008A000E7FB0C942806E92F0E94770658F3BA1745
:1008B000620773078407950720F079F4A6F50C9476
:1008C00099060EF4E0950B2EBA2FA02D0B01B9015D
:1008D00090010C01CA01A0011124FF27591B99F0B6
:1008E000593F50F4503E68F11A16F040A22F232FC2
:1008F000342F4427585FF3CF469537952795A79512
:10090000F0405395C9F77EF41F16BA0B620B730BB8
:10091000840BBAF09150A1F0FF0FBB1F661F771F29
:10092000881FC2F70EC0BA0F621F731F841F48F4DE
:10093000879577956795B795F7959E3F08F0B0CF67
:100940009395880F08F09927EE0F9795879508954E
:100950000E94580660F080E891E009F49EEF0E9442
:100960005F0628F040E851E071F45EEF0CC00C9493
:100970002E060C949906E92FE0780E94770640F342
:10098000092E052AB1F3261737074807590738F00B
:100990000E2E07F8E02569F0E025E0640AC0EF6359
:1009A00007F8009407FADB01B9019D01DC01CA01D7
:1009B000AD01EF930E9436050E9466060E94EB048B
:1009C0005F91552339F02BED3FE049E450FD49ECB0
:1009D0000C943C040895DF93DD27B92FBF7740E8DE
:1009E0005FE31616170648075B0718F4D92F0E9415
:1009F000A5069F938F937F936F930E941A07E8E653
:100A0000F0E00E9431060E9466062F913F914F91BF
:100A10005F910E94C006DD2351F09058A2EA2AEDB2
:100A20003FE049EC5FE3D0785D270E945304DF91FB
:100A30000C9466060E94040608F481E008950E9462
:100A400033050C9466060E945F0658F00E94580613
:100A500040F029F45F3F29F00C94280651110C94C2
:100A60009A060C942E060E94770668F39923B1F338
:100A7000552391F3951B550BBB27AA2762177307C4
:100A8000840738F09F5F5F4F220F331F441FAA1F58
:100A9000A9F335D00E2E3AF0E0E832D09150504014
:100AA000E695001CCAF72BD0FE2F29D0660F771FC2
:100AB000881FBB1F261737074807AB07B0E809F0A8
:100AC000BB0B802DBF01FF2793585F4F3AF09E3F2D
:100AD000510578F00C9428060C949A065F3FE4F3D5
:100AE000983ED4F3869577956795B795F7959F5F70
:100AF000C9F7880F911D9695879597F90895E1E0BC
:100B0000660F771F881FBB1F621773078407BA071A
:100B100020F0621B730B840BBA0BEE1F88F7E09575
:100B200008950E9498056894B1110C949A0608954E
:100B30000E947F0688F09F5798F0B92F9927B751E8
:100B4000B0F0E1F0660F771F881F991F1AF0BA9571
:100B5000C9F714C0B13091F00E949906B1E0089530
:100B60000C949906672F782F8827B85F39F0B93F22
:100B7000CCF3869577956795B395D9F73EF4909524
:100B80008095709561957F4F8F4F9F4F0895E894A2
:100B900009C097FB3EF490958095709561957F4FC5
:100BA0008F4F9F4F9923A9F0F92F96E9BB27939573
:100BB000F695879577956795B795F111F8CFFAF483
:100BC000BB0F11F460FF1BC06F5F7F4F8F4F9F4FB4
:100BD00016C0882311F096E911C0772321F09EE812
:100BE000872F762F05C0662371F096E8862F70E078
:100BF00060E02AF09A95660F771F881FDAF7880F52
:100C00009695879597F90895990F0008550FAA0BA7
:100C1000E0E8FEEF16161706E807F907C0F012160F
:100C20001306E407F50798F0621B730B840B950B12
:100C300039F40A2661F0232B242B252B21F4089567
:100C40000A2609F4A140A6958FEF811D811D089504
:100C500097F99F6780E870E060E008959FEF80EC6F
:100C60000895DF93CF931F930F93FF92EF92DF923C
:100C70007B018C01689406C0DA2EEF010E94C00649
:100C8000FE01E894A5912591359145915591A6F3E2
:100C9000EF010E945304FE019701A801DA9469F75D
:100CA000DF90EF90FF900F911F91CF91DF9108950A
:100CB00000240A941616170618060906089500243B
:100CC0000A9412161306140605060895092E0394B5
:100CD000000C11F4882352F0BB0F40F4BF2B11F429
:100CE00060FF04C06F5F7F4F8F4F9F4F089557FD88
:100CF0009058440F551F59F05F3F71F04795880F8A
:100D000097FB991F61F09F3F79F087950895121620
:100D100013061406551FF2CF4695F1DF08C01616CC
:100D200017061806991FF1CF86957105610508947D
:100D30000895E894BB2766277727CB0197F9089594
:100D40000E94040608F48FEF08959B01AC0160E057
:100D500070E080E89FE30C941F050E94C0060C948D
:100D600066060E94580638F00E945F0620F0952320
:100D700011F00C9428060C942E0611240C949A065B
:100D80000E94770670F3959FC1F3950F50E0551FB1
:100D9000629FF001729FBB27F00DB11D639FAA27D0
:100DA000F00DB11DAA1F649F6627B00DA11D661F1F
:100DB000829F2227B00DA11D621F739FB00DA11D40
:100DC000621F839FA00D611D221F749F3327A00DFA
:100DD000611D231F849F600D211D822F762F6A2F96
:100DE00011249F5750409AF0F1F088234AF0EE0FFB
:100DF000FF1FBB1F661F771F881F91505040A9F728
:100E00009E3F510580F00C9428060C949A065F3F93
:100E1000E4F3983ED4F3869577956795B795F79563
:100E2000E7959F5FC1F7FE2B880F911D96958795DB
:100E300097F908959B01AC010C94AD06052E97FB24
:100E40001EF400940E94350757FD07D00E943D070D
:100E500007FC03D04EF40C9435075095409530951F
:100E600021953F4F4F4F5F4F089590958095709516
:100E700061957F4F8F4F9F4F0895A1E21A2EAA1BB5
:100E8000BB1BFD010DC0AA1FBB1FEE1FFF1FA2173A
:100E9000B307E407F50720F0A21BB30BE40BF50B37
:100EA000661F771F881F991F1A9469F760957095C0
:100EB000809590959B01AC01BD01CF0108950F93E2
:100EC0001F93CF93DF93E0913601F0913701238197
:100ED00021FF1BC08C01D0E0C0E0F80181918F019F
:100EE0006091360170913701DB011896ED91FC910C
:100EF0001997882331F00995892B79F3DFEFCFEF2C
:100F0000ECCF8AE00995892B19F08FEF9FEF02C093
:100F10008D2F9C2FDF91CF911F910F910895F89401
:020F2000FFCF01
:100F220001000000000300000000A5009D00000079
:040F32004F4B0D0014
:00000001FF
