:100000000C9483000C94A0000C94A0000C94A0000D
:100010000C94A0000C94A0000C94A0000C94A000E0
:100020000C94A0000C94A0000C94A0000C94AC03C1
:100030000C94A0000C94A0000C94A0000C94A000C0
:100040000C94A0000C94A0000C94D0020C94A0007E
:100050000C94A0000C94A0000C94A0000C94A000A0
:100060000C94A0000C94A00087059705AB05CB0568
:10007000110657069E066C0363039603530376032B
:10008000600396039603460396039603690396035B
:1000900096036F033903960366030803084AD73BA8
:1000A0003BCE016E84BCBFFDC12F3D6C74319ABD47
:1000B00056833DDA3D00C77F11BED9E4BB4C3E916B
:1000C0006BAAAABE000000803F004E414E494E4937
:1000D0005459494E46CDCCCC3D0AD7233C17B7D115
:1000E0003877CC2B329595E6241FB14F0A000020BB
:1000F000410000C84200401C4620BCBE4CCA1B0E3A
:100100005AAEC59D740011241FBECFEFD8E0DEBFEC
:10011000CDBF21E0A4E3B1E001C01D92A83DB2072C
:10012000E1F711E0A0E0B1E0E0E4FDE102C00590FC
:100130000D92A433B107D9F70E94BD030C949E0E13
:100140000C9400008091BC0087FFFCCF0895809341
:10015000BB0084E88093BC000E94A2009091B9008B
:10016000987F81E0983209F480E00895CF93C82FFA
:100170001092BC0084EA8093BC000E94A20080918F
:10018000B900887F883011F081E00FC0C093BB00B8
:1001900084E88093BC000E94A2008091B900887F0F
:1001A000883111F0803481F780E0CF9108954F922B
:1001B0005F926F927F928F929F92AF92BF92CF92F7
:1001C000DF92EF92FF92CF93DF93CDB7DEB76097C8
:1001D0000FB6F894DEBF0FBECDBF6B017C0140901F
:1001E000C8015090C9016090CA017090CB01609124
:1001F000C4017091C5018091C6019091C701209101
:10020000CC013091CD014091CE015091CF01809031
:100210003C0190903D01A0903E01B0903F018D8641
:100220009E86AF86B88A8090380190903901A09060
:100230003A01B0903B0189829A82AB82BC82809065
:10024000C0019090C101A090C201B090C3018D8205
:100250009E82AF82B8868090CC019090CD01A09014
:10026000CE01B090CF0189869A86AB86BC860E946B
:10027000AF082D853E854F8558890E94AF084B01F8
:100280005C01A7019601C301B2010E94AF089B0166
:10029000AC01C501B4010E94C2094B015C01298176
:1002A0003A814B815C81C701B6010E94C1092D8151
:1002B0003E814F8158850E94AF0829853A854B853C
:1002C0005C850E94A00A9B01AC01C501B4010E949B
:1002D000C209609334017093350180933601909385
:1002E000370120913C0130913D0140913E015091F8
:1002F0003F01C701B6010E94C20960933C0170939F
:100300003D0180933E0190933F01C0923801D0920D
:100310003901E0923A01F0923B0160913C01709109
:100320003D0180913E0190913F0120E030E048E4A2
:1003300053E40E946F0B181644F410923C01109283
:100340003D0110923E0110923F0160913C0170917D
:100350003D0180913E0190913F0120E030E048E472
:1003600053EC0E94490887FF08C010923C0110928C
:100370003D0110923E0110923F0160913401709155
:100380003501809136019091370120E030E04EEF49
:1003900052E40E94C20960960FB6F894DEBF0FBE09
:1003A000CDBFDF91CF91FF90EF90DF90CF90BF90C6
:1003B000AF909F908F907F906F905F904F90089537
:1003C000CF93DF93C82F80ED0E94B600882329F0D9
:1003D00025E02A95F1F70000F6CF80ED0E94B600E7
:1003E0008C2F0E94A70081ED0E94B60084EC8093C0
:1003F000BC000E94A200C091BB00D0E0DC2FCC2743
:1004000084E88093BC000E94A2008091BB0094E924
:100410009093BC009E01282BC901DF91CF910895D4
:100420001F93CF93DF93182FD62F80ED0E94B60035
:10043000882329F085E08A95F1F70000F6CF80ED5A
:100440000E94B600C82F812F0E94A7008D2F0E9406
:10045000A70084E98093BC008C2FDF91CF911F917E
:1004600008958091C00087FD05C085E08A95F1F769
:100470000000F7CF8091C60090E008959091C000F1
:1004800095FD05C095E09A95F1F70000F7CF8093B0
:10049000C60080E090E008958F929F92AF92BF9245
:1004A000CF92DF92EF92FF92CF93DF938BE30E9484
:1004B000E001EC018DE30E94E0018FE30E94E00186
:1004C0007C0183E40E94E00185E40E94E0016C016C
:1004D00087E40E94E001B601DD0C880B990B0E94B5
:1004E000500820E030E043E053E40E94A00A4B01B2
:1004F0005C01B701FF0C880B990B0E9450086B013F
:100500007C01BE01DD0F880B990B0E945008A701EA
:1005100096010E94410A6B017C01C501B4010E9451
:10052000120B072E000C880B990B0E9450082CEA26
:1005300035EC47E257E30E94AF0820E030E044EB9F
:1005400052E40E94C2092DEC3CEC4CE45EE30E94B4
:10055000AF084B015C0120E030E044E353E4C70105
:10056000B6010E94AF082BED3FE049E450E40E9441
:10057000A00A2DEC3CEC4CE45FE30E94AF089B0129
:10058000AC01C501B4010E94C209DF91CF91FF9077
:10059000EF90DF90CF90BF90AF909F908F90089595
:1005A0001F920F920FB60F9211242F933F934F93E8
:1005B0005F936F937F938F939F93AF93BF93EF93CB
:1005C000FF9386E091E00E9431028D3041F08A3342
:1005D00009F09DC01092B9011092B801A7C0E09136
:1005E000B801F091B901E05CFE4F1082E09140014A
:1005F0008E2FEE0F990BAA0BBB0BFC01E154F109F6
:10060000E331F10508F092C0E55CFF4F0C949F0BBD
:1006100081E491E00E94B406BC0186549109899757
:1006200078F4072E000C880B990B0E9450086093F9
:10063000000170930101809302019093030176C041
:100640008091000190910101A0910201B0910301FC
:10065000BF93AF939F938F9387E191E09F938F9385
:100660000E94C70B0F900F900F900F900F900F905C
:100670005DC081E491E00E94B0066093C801709370
:10068000C9018093CA019093CB0150C081E491E0ED
:100690000E94B0066093C4017093C5018093C601A7
:1006A0009093C70143C081E491E00E94B00660933B
:1006B000C0017093C1018093C2019093C30136C001
:1006C00081E090E00EC082E090E00BC083E090E01B
:1006D00008C084E090E005C085E090E002C086E0BC
:1006E00090E09093BF018093BE0120C08091BF0134
:1006F0008F938091BE018F9389E291E09F938F93B6
:100700000E94C70B0F900F900F900F900FC0209179
:10071000B8013091B901A9014F5F5F4F5093B90102
:100720004093B801F901E05CFE4F80838091C000E6
:100730008F778093C000FF91EF91BF91AF919F9110
:100740008F917F916F915F914F913F912F910F907A
:100750000FBE0F901F9018951F920F920FB60F9219
:100760001124F89410920501109204017894B19824
:100770000F900FBE0F901F9018954F925F926F923F
:100780007F928F929F92AF92BF92CF92DF92EF9221
:10079000FF921F93CF93DF9388B1806388B988E479
:1007A0008093B8008FE39CE90197F1F700C0000047
:1007B0006BE08BE60E94100265E08AE10E94100265
:1007C00060E08BE10E94100260E08CE10E94100268
:1007D00080E190E09093C5008093C40088E180930D
:1007E000C1008EE08093C2008091C0008F7780931B
:1007F000C0008091C10080688093C10086E091E0D4
:100800009093D1018093D0019093D3018093D20132
:1008100084E191E00E94DD0B7894539A239A8091B1
:10082000B0008C7F8093B0008091B100877F80936F
:10083000B1008091B00081608093B0008091B000E1
:100840008F738093B0008091B0008F7C8093B00054
:100850008091B00080688093B0008091B000806388
:100860008093B00081E090E09093BB018093BA0147
:100870008091B100887F8093B1008091BA019091FE
:10088000BB0188309105E1F040F40097A9F0019791
:1008900021F58091B10081601EC0811521E0920791
:1008A00099F0811524E0920799F080349105A9F41C
:1008B0008091B10083600FC08091B100887F0BC030
:1008C0008091B100826007C08091B100846003C054
:1008D0008091B10085608093B100569A559A84B595
:1008E0008C7F84BD85B5877F85BD84B5816084BDDF
:1008F00084B58F7384BD84B58F7C84BD84B58068D6
:1009000084BD84B5806384BD81E090E09093BB0199
:100910008093BA0185B5887F85BD8091BA01909199
:10092000BB0188309105C9F038F4009799F0019720
:10093000E9F485B5816019C0811521E0920781F045
:10094000811524E0920779F08034910579F485B51A
:1009500083600BC085B5887F08C085B5826005C0FF
:1009600085B5846002C085B5856085BD80918000B5
:100970008C7F8093800080918100877E80938100AE
:100980008091810088608093810088E090E090935E
:10099000BD018093BC0180918100887F809381009C
:1009A0008091BC019091BD0188309105E1F040F447
:1009B0000097A9F0019721F58091810081601EC008
:1009C000811521E0920799F0811524E0920799F0B2
:1009D00080349105A9F48091810083600FC08091DB
:1009E0008100887F0BC080918100826007C0809168
:1009F0008100846003C080918100856080938100C4
:100A0000809180008F7380938000809180008F7C24
:100A1000809380008091800080648093800080912A
:100A200080008F7C80938000B19880916F008260FD
:100A300080936F002091BC013091BD0140E050E0F7
:100A400060E074E284EF90E00E94800BCA01B9017B
:100A50000E9450082AE037ED43EA5BE30E94AF08AA
:100A600020E030E040E85FE30E94C1090E94190BDA
:100A700070938900609388008AE097EDA3EABBE356
:100A80008093CC019093CD01A093CE01B093CF0180
:100A900083E393E3A3EDB0E48093C8019093C9018D
:100AA000A093CA01B093CB011092C4011092C5016A
:100AB0001092C6011092C70180E59DE8A7E1BDE351
:100AC0008093C0019093C101A093C201B093C30170
:100AD0001092BF011092BE01812C912C6EEBA62EBC
:100AE00062E4B62E412C512C7AEA672E72E4772EFE
:100AF0001FE7C1E0D0E0E091BE01F091BF01E73017
:100B0000F10508F016C1EC5CFF4F0C949F0B17BD6C
:100B100018BD1093B3001093B4008FEF90E722E05C
:100B2000815090402040E1F700C0000002C1809158
:100B3000040190910501892B29F085E08A95F1F750
:100B40000000F5CF40920001509201016092020135
:100B50007092030113C08091040190910501892BCB
:100B600029F095E09A95F1F70000F5CF8092000109
:100B700090920101A0920201B09203010E944C02E6
:100B80009B01AC0160910001709101018091020113
:100B9000909103019FC08091040190910501892BE0
:100BA00029F025E02A95F1F70000F5CF0E944C02CC
:100BB0009B01AC01609100017091010180910201E3
:100BC000909103010E94C1090E94D7006B017C0132
:100BD00020E030E04CE453E40E946F0B18168CF0D8
:100BE00020E030E04CE452E4C701B6010E9449081D
:100BF00087FF0DC0C12CD12C5CE4E52E52E4F52E0C
:100C000006C0C12CD12C4CE4E42E43E4F42EC701E1
:100C1000B6010E94190B8CEE860F87BD88BD6C5EF5
:100C200084C08091040190910501892B29F085E011
:100C30008A95F1F70000F5CF0E944C029B01AC01B0
:100C40006091000170910101809102019091030176
:100C50000E94C1090E94D7006B017C0120E030E0B6
:100C60004CE453E40E946F0B18168CF020E030E047
:100C70004CE452E4C701B6010E94490887FF0DC049
:100C8000C12CD12C3CE4E32E32E4F32E06C0C12C5F
:100C9000D12C2CE4E22E23E4F22EC701B6010E94EF
:100CA000190B84E1860F87BD88BD64513EC08091D9
:100CB000040190910501892B29F095E09A95F1F7AF
:100CC0000000F5CF0E944C029B01AC0160E070E097
:100CD00084EB92E40E94C1090E94D7006B017C0161
:100CE00020E030E04CE453E40E946F0B18168CF0C7
:100CF00020E030E04CE452E4C701B6010E9449080C
:100D000087FF0DC0C12CD12C9CE4E92E92E4F92E72
:100D100006C0C12CD12C8CE4E82E83E4F82EC70148
:100D2000B6010E94190B67BD68BD6093B300609364
:100D3000B400D0930501C0930401DDCE80E090E0C3
:100D4000DF91CF911F91FF90EF90DF90CF90BF90F8
:100D5000AF909F908F907F906F905F904F9008958D
:100D6000662777270C94DA06FC0188279927E894F0
:100D700021912032E9F3293010F02E30C8F32B32C4
:100D800041F02D3239F4689404C00E94D206820FDB
:100D9000911D219120532A30C0F31EF49095819526
:100DA0009F4F08957AE0979F902D879F802D910DFA
:100DB00011240895A0E0B0E0E0EEF6E00C94810983
:100DC000EC016B016115710519F0FB0191838083C2
:100DD0007E01FFEFEF1AFF0A0881802F90E00E944A
:100DE0002808892B11F0E701F3CF0D3239F47E0189
:100DF00082E0E80EF11C098111E008C00B3229F4F1
:100E00007E0192E0E90EF11C098110E0E7012197D3
:100E100043E050E062ED70E0CE010E943108892B82
:100E2000C1F4239645E050E06DEC70E0CE010E94E5
:100E30003108892B09F42596C114D10419F0F60163
:100E4000D183C0831111F6C060E070E080E89FE7B5
:100E5000FAC043E050E06AEC70E0CE010E94310835
:100E6000892B59F4C114D10409F4E9C0F2E0EF0E62
:100E7000F11CF601F182E082E2C020E030E0A9013D
:100E8000C0E0D0E0F70180EDA82EA00E89E08A1521
:100E900030F1912F9260B92E812F887012FF04C01B
:100EA000811124C0219622C081112197A5E0B0E0D4
:100EB0000E947009DC01CB01880F991FAA1FBB1F7C
:100EC0009C01AD012A0D311D411D511D283989E9B3
:100ED0003807480789E1580748F0166006C09EEFBA
:100EE000A9120AC013FD40C01860B12E8FEFE81A96
:100EF000F80A00811B2DC6CF802F8F7D8534A1F588
:100F000080818D3211F4106106C08B3221F0319650
:100F100061E070E004C08181329662E070E080534D
:100F20008A3018F0E61BF70B1FC060E070E06038F5
:100F30009CE079075CF4DB01AA0FBB1FAA0FBB1F63
:100F40006A0F7B1F660F771F680F711D3196DF01D7
:100F500011978C9180538A3050F314FF03C0719520
:100F600061957109C60FD71F11FF08C0C114D104C4
:100F700029F0CF010197F60191838083CA01B9015D
:100F80000E944E08212F2370233019F04B015C0181
:100F900006C04B015C01B7FAB094B7F8B09420E0FA
:100FA00030E0A901C501B4010E944908882309F471
:100FB0003EC0D7FF06C0D195C195D10909EE10E01A
:100FC00002C001E011E06801F8E1CF1AD10890E217
:100FD000E92EF12CCE15DF0574F0F801259135913D
:100FE00045915491C501B4010E94AF084B015C01C9
:100FF000CE19DF09EFCF04501109F594E7940C15D1
:101000001D0541F78A2D880F8B2D881F8F3F49F0D2
:1010100020E030E0A901C501B4010E944908811116
:1010200006C082E290E09093D7018093D601C5017B
:10103000B40109C060E070E080E89FEF04C060E0A8
:1010400070E080EC9FE7CDB7DEB7ECE00C949D0933
:1010500091110C941C09803219F089508550C8F701
:101060000895FB01DC014150504088F08D9181349E
:101070001CF08B350CF4805E659161341CF06B358F
:101080000CF4605E861B611171F3990B0895881B47
:10109000FCCF0E948B0808F481E00895E89409C011
:1010A00097FB3EF490958095709561957F4F8F4F9B
:1010B0009F4F9923A9F0F92F96E9BB279395F695B1
:1010C000879577956795B795F111F8CFFAF4BB0F2F
:1010D00011F460FF1BC06F5F7F4F8F4F9F4F16C093
:1010E000882311F096E911C0772321F09EE8872F1D
:1010F000762F05C0662371F096E8862F70E060E0D9
:101100002AF09A95660F771F881FDAF7880F969551
:10111000879597F90895990F0008550FAA0BE0E8F5
:10112000FEEF16161706E807F907C0F012161306A9
:10113000E407F50798F0621B730B840B950B39F4E9
:101140000A2661F0232B242B252B21F408950A264F
:1011500009F4A140A6958FEF811D811D08950E947D
:10116000C2080C9436090E94280938F00E942F0901
:1011700020F0952311F00C941F090C9425091124DB
:101180000C946A090E94470970F3959FC1F3950F6B
:1011900050E0551F629FF001729FBB27F00DB11DFB
:1011A000639FAA27F00DB11DAA1F649F6627B00D8B
:1011B000A11D661F829F2227B00DA11D621F739F74
:1011C000B00DA11D621F839FA00D611D221F749F82
:1011D0003327A00D611D231F849F600D211D822FC9
:1011E000762F6A2F11249F5750409AF0F1F08823F0
:1011F0004AF0EE0FFF1FBB1F661F771F881F91501D
:101200005040A9F79E3F510580F00C941F090C94A3
:101210006A095F3FE4F3983ED4F386957795679526
:10122000B795F795E7959F5FC1F7FE2B880F911D46
:101230009695879597F9089599278827089597F99E
:101240009F6780E870E060E008959FEF80EC08956C
:1012500000240A9416161706180609060895002495
:101260000A9412161306140605060895092E03940F
:10127000000C11F4882352F0BB0F40F4BF2B11F483
:1012800060FF04C06F5F7F4F8F4F9F4F089557FDE2
:101290009058440F551F59F05F3F71F04795880FE4
:1012A00097FB991F61F09F3F79F08795089512167B
:1012B00013061406551FF2CF4695F1DF08C0161627
:1012C00017061806991FF1CF8695710561050894D8
:1012D0000895E894BB2766277727CB0197F90895EF
:1012E0000E94B209A59F900DB49F900DA49F800D00
:1012F000911D112408952F923F924F925F926F9209
:101300007F928F929F92AF92BF92CF92DF92EF9295
:10131000FF920F931F93CF93DF93CDB7DEB7CA1B16
:10132000DB0B0FB6F894DEBF0FBECDBF09942A8841
:10133000398848885F846E847D848C849B84AA84E9
:10134000B984C884DF80EE80FD800C811B81AA8176
:10135000B981CE0FD11D0FB6F894DEBF0FBECDBF41
:10136000ED010895A29FB001B39FC001A39F700D2E
:10137000811D1124911DB29F700D811D1124911D9D
:1013800008955058BB27AA270E94D9090C94360902
:101390000E94280938F00E942F0920F039F49F3F5D
:1013A00019F426F40C9425090EF4E095E7FB0C944F
:1013B0001F09E92F0E94470958F3BA1762077307FC
:1013C0008407950720F079F4A6F50C9469090EF4CA
:1013D000E0950B2EBA2FA02D0B01B90190010C0145
:1013E000CA01A0011124FF27591B99F0593F50F45D
:1013F000503E68F11A16F040A22F232F342F4427B5
:10140000585FF3CF469537952795A795F0405395AC
:10141000C9F77EF41F16BA0B620B730B840BBAF07C
:101420009150A1F0FF0FBB1F661F771F881FC2F7E7
:101430000EC0BA0F621F731F841F48F487957795FB
:101440006795B795F7959E3F08F0B0CF9395880FB5
:1014500008F09927EE0F9795879508950E9428091F
:1014600060F080E891E009F49EEF0E942F0928F0D7
:1014700040E851E071F45EEF0CC00C9425090C9427
:101480006909E92FE0780E94470940F3092E052AEF
:10149000B1F3261737074807590738F00E2E07F81B
:1014A000E02569F0E025E0640AC0EF6307F80094E6
:1014B00007FADB01B9019D01DC01CA01AD01EF931F
:1014C0000E94B70A0E9436090E94710A5F91552353
:1014D00039F02BED3FE049E450FD49EC0C94C20992
:1014E0000895DF93DD27B92FBF7740E85FE3161635
:1014F000170648075B0718F4D92F0E94740B9F93B7
:101500008F937F936F930E947C0BECE9F0E00E9435
:10151000480B0E9436092F913F914F915F910E9495
:10152000C208DD2351F09058A2EA2AED3FE049ECD1
:101530005FE3D0785D270E94D909DF910C943609CA
:101540000E94B40A0C9436090E942F0958F00E9498
:10155000280940F029F45F3F29F00C941F0951112C
:101560000C946A090C9425090E94470968F3992391
:10157000B1F3552391F3951B550BBB27AA2762178F
:101580007307840738F09F5F5F4F220F331F441F9C
:10159000AA1FA9F335D00E2E3AF0E0E832D09150D0
:1015A0005040E695001CCAF72BD0FE2F29D0660FBD
:1015B000771F881FBB1F261737074807AB07B0E800
:1015C00009F0BB0B802DBF01FF2793585F4F3AF006
:1015D0009E3F510578F00C941F090C946A095F3FF7
:1015E000E4F3983ED4F3869577956795B795F7958C
:1015F0009F5FC9F7880F911D9695879597F9089574
:10160000E1E0660F771F881FBB1F6217730784070F
:10161000BA0720F0621B730B840BBA0BEE1F88F71E
:10162000E09508950E94190B6894B1110C946A0911
:1016300008950E944F0988F09F5798F0B92F992775
:10164000B751B0F0E1F0660F771F881F991F1AF0AD
:10165000BA95C9F714C0B13091F00E946909B1E0A0
:1016600008950C946909672F782F8827B85F39F09F
:10167000B93FCCF3869577956795B395D9F73EF446
:1016800090958095709561957F4F8F4F9F4F0895EE
:10169000DF93CF931F930F93FF92EF92DF927B0123
:1016A0008C01689406C0DA2EEF010E94C208FE0188
:1016B000E894A5912591359145915591A6F3EF01B7
:1016C0000E94D909FE019701A801DA9469F7DF9019
:1016D000EF90FF900F911F91CF91DF9108950E949D
:1016E0008B0808F48FEF08959B01AC0160E070E077
:1016F00080E89FE30C94A00A9B01AC010C94AF0816
:10170000052E97FB1EF400940E94970B57FD07D0FF
:101710000E94A50B07FC03D04EF40C94970B509538
:101720004095309521953F4F4F4F5F4F08959095CD
:101730008095709561957F4F8F4F9F4F0895EE0F65
:10174000FF1F0590F491E02D0994A1E21A2EAA1B27
:10175000BB1BFD010DC0AA1FBB1FEE1FFF1FA21761
:10176000B307E407F50720F0A21BB30BE40BF50B5E
:10177000661F771F881F991F1A9469F760957095E7
:10178000809590959B01AC01BD01CF010895A0E02B
:10179000B0E0EDECFBE00C948B09AE014B5F5F4FCA
:1017A000FA0161917191AF018091D2019091D301C1
:1017B0000E940D0CE2E00C94A7090F931F93CF93A6
:1017C000DF93E091D201F091D301238121FF1BC06F
:1017D0008C01D0E0C0E0F80181918F016091D201CD
:1017E0007091D301DB011896ED91FC911997882334
:1017F00031F00995892B79F3DFEFCFEFECCF8AE059
:101800000995892B19F08FEF9FEF02C08D2F9C2F28
:10181000DF91CF911F910F910895ABE0B0E0E3E12C
:10182000FCE00C947B096C017B018A01FC011782AE
:101830001682838181FFCCC1CE0101963C01F60165
:101840009381F70193FD859193FF81917F01882317
:1018500009F4BAC1853239F493FD859193FF8191E2
:101860007F01853229F4B60190E00E94040EE7CF93
:10187000912C212C312CFFE1F315D8F08B3279F02B
:1018800038F4803279F08332A1F4232D20611DC019
:101890008D3261F0803369F4232D216016C0832DD1
:1018A0008260382EE32DE4603E2E2AC0F32DF860CE
:1018B0001DC037FC2DC020ED280F2A3040F08E329D
:1018C000B9F436FC81C1232D2064322E19C036FEB6
:1018D00006C08AE0989E200D1124922E11C0EAE0E5
:1018E0002E9E200D1124222EF32DF0623F2E08C0D3
:1018F0008C3621F4832D8068382E02C0883641F45E
:10190000F70193FD859193FF81917F018111B3CF01
:10191000982F9F7D9554933028F40C5F1F4F9FE3C1
:1019200099830DC0833631F0833771F0833509F028
:1019300059C021C0F801808189830E5F1F4F882420
:101940008394912C530113C02801F2E04F0E511CD7
:10195000F801A080B18036FE03C0692D70E002C09E
:101960006FEF7FEFC5010E94F90D4C018201F32D4D
:10197000FF773F2E16C0280122E0420E511CF801CD
:10198000A080B18036FE03C0692D70E002C06FEF09
:101990007FEFC5010E94EE0D4C01F32DF0683F2E44
:1019A000820133FC1BC0822D90E088169906B0F4AA
:1019B000B60180E290E00E94040E2A94F4CFF50173
:1019C00037FC859137FE81915F01B60190E00E945E
:1019D000040E21102A9421E0821A910881149104A6
:1019E00071F7E8C0843611F0893641F5F80137FE09
:1019F00007C060817181828193810C5F1F4F08C095
:101A000060817181072E000C880B990B0E5F1F4FB0
:101A1000F32DFF763F2E97FF09C090958095709526
:101A200061957F4F8F4F9F4FF0683F2E2AE030E047
:101A3000A3010E94400E882E861845C0853731F4D8
:101A4000232D2F7EB22E2AE030E025C0932D997FE2
:101A5000B92E8F36C1F018F4883579F0B5C08037CB
:101A600019F0883721F0B0C0E92FE061BE2EB4FE36
:101A70000DC0FB2DF460BF2E09C034FE0AC0292F13
:101A80002660B22E06C028E030E005C020E130E03C
:101A900002C020E132E0F801B7FE07C06081718129
:101AA000828193810C5F1F4F06C06081718180E04D
:101AB00090E00E5F1F4FA3010E94400E882E8618F3
:101AC000FB2DFF773F2E36FE0DC0232D2E7FA22E3D
:101AD000891458F434FE0BC032FC09C0832D8E7E6D
:101AE000A82E05C0B82CA32C03C0B82C01C0B92C5B
:101AF000A4FE0FC0FE01E80DF11D8081803321F4AA
:101B00009A2D997EA92E09C0A2FE06C0B394B39463
:101B100004C08A2D867809F0B394A3FC11C0A0FEFE
:101B200006C0B21488F4280C922C9B180EC0B21474
:101B300060F4B60180E290E00E94040EB394F7CF07
:101B4000B21418F42B1802C0982C212CA4FE10C03B
:101B5000B60180E390E00E94040EA2FE17C0A1FC33
:101B600003C088E790E002C088E590E0B6010CC0B1
:101B70008A2D867859F0A1FE02C08BE201C080E276
:101B8000A7FC8DE2B60190E00E94040E891438F49F
:101B9000B60180E390E00E94040E9A94F7CF8A94F5
:101BA000F301E80DF11D8081B60190E00E94040E62
:101BB0008110F5CF222009F442CEB60180E290E0F8
:101BC0000E94040E2A94F6CFF6018681978102C006
:101BD0008FEF9FEF2B96E2E10C949709FC010590A3
:101BE000615070400110D8F7809590958E0F9F1F1F
:101BF0000895FC016150704001900110D8F7809564
:101C000090958E0F9F1F08950F931F93CF93DF938F
:101C1000FB01238121FD03C08FEF9FEF2CC022FF2A
:101C200016C046815781248135814217530744F4F9
:101C3000A081B1819D012F5F3F4F318320838C9321
:101C4000268137812F5F3F4F3783268314C08B0156
:101C5000EC01FB010084F185E02D0995892BE1F66B
:101C6000D80116968D919C911797019617969C9383
:101C70008E931697CE01DF91CF911F910F9108950A
:101C8000FA01AA27283051F1203181F1E8946F93AD
:101C90006E7F6E5F7F4F8F4F9F4FAF4FB1E03ED053
:101CA000B4E03CD0670F781F891F9A1FA11D680FF1
:101CB000791F8A1F911DA11D6A0F711D811D911D24
:101CC000A11D20D009F468943F912AE0269F112499
:101CD0003019305D3193DEF6CF010895462F4770FD
:101CE000405D4193B3E00FD0C9F7F6CF462F4F7058
:101CF000405D4A3318F0495D31FD4052419302D0B6
:101D0000A9F7EACFB4E0A69597958795779567955B
:101D1000BA95C9F700976105710508959B01AC015B
:101D20000A2E06945795479537952795BA95C9F782
:101D3000620F731F841F951FA01D0895F894FFCF95
:101D40000000B442010000000003000000003E0259
:101D5000310200004F4B005354206D75792067729B
:101D6000616E64653A25640A0045737461646F208E
:041D700025640A00DC
:00000001FF
