:100000000C9483000C94A0000C94A0000C94A0000D
:100010000C94A0000C94A0000C94A0000C94A000E0
:100020000C94A0000C94A0000C94A0000C94CC03A1
:100030000C94A0000C94A0000C94A0000C94A000C0
:100040000C94A0000C94A0000C94D8020C94A00076
:100050000C94A0000C94A0000C94A0000C94A000A0
:100060000C94A0000C94A0009705A405AF05C90549
:100070002B068D06F0068C037703B6035B0396030D
:100080006803B603B6034E03B603B6038903B6038B
:10009000B6038F034103B60386031003084AD73B18
:1000A0003BCE016E84BCBFFDC12F3D6C74319ABD47
:1000B00056833DDA3D00C77F11BED9E4BB4C3E916B
:1000C0006BAAAABE000000803F004E414E494E4937
:1000D0005459494E46CDCCCC3D0AD7233C17B7D115
:1000E0003877CC2B329595E6241FB14F0A000020BB
:1000F000410000C84200401C4620BCBE4CCA1B0E3A
:100100005AAEC59D740011241FBECFEFD8E0DEBFEC
:10011000CDBF21E0A4E3B1E001C01D92AE37B2072C
:10012000E1F711E0A0E0B1E0EAEEFDE102C00590E8
:100130000D92A433B107D9F70E94DC030C94F30E9F
:100140000C9400008091BC0087FFFCCF0895809341
:10015000BB0084E88093BC000E94A2009091B9008B
:10016000987F81E0983209F480E00895CF93C82FFA
:100170001092BC0084EA8093BC000E94A20080918F
:10018000B900887F883011F081E00FC0C093BB00B8
:1001900084E88093BC000E94A2008091B900887F0F
:1001A000883111F0803481F780E0CF9108954F922B
:1001B0005F926F927F928F929F92AF92BF92CF92F7
:1001C000DF92EF92FF92CF93DF93CDB7DEB76097C8
:1001D0000FB6F894DEBF0FBECDBF6B017C0140901F
:1001E0006E0150906F01609070017090710160918C
:1001F0006A0170916B0180916C0190916D01209169
:100200007201309173014091740150917501809099
:100210003C0190903D01A0903E01B0903F018D8641
:100220009E86AF86B88A8090380190903901A09060
:100230003A01B0903B0189829A82AB82BC82809065
:10024000660190906701A0906801B09069018D826D
:100250009E82AF82B8868090720190907301A090C8
:100260007401B090750189869A86AB86BC860E941F
:1002700004092D853E854F8558890E9404094B014C
:100280005C01A7019601C301B2010E9404099B0110
:10029000AC01C501B4010E94170A4B015C01298120
:1002A0003A814B815C81C701B6010E94160A2D81FB
:1002B0003E814F8158850E94040929853A854B85E6
:1002C0005C850E94F50A9B01AC01C501B4010E9446
:1002D000170A60933401709335018093360190932F
:1002E000370180903C0190903D01A0903E01B0907C
:1002F0003F01C701B6010E94670B072E000C880B57
:10030000990B0E94A508A50194010E94170A609309
:100310003C0170933D0180933E0190933F01C09258
:100320003801D0923901E0923A01F0923B0160919C
:100330003C0170913D0180913E0190913F0120E090
:1003400030E04AEF53E40E94C40B181664F480E0D6
:1003500090E0AAEFB3E480933C0190933D01A09319
:100360003E01B0933F0160913C0170913D0180914D
:100370003E0190913F0120E030E04AEF53EC0E94B3
:100380009E0887FF0CC080E090E0AAEFB3EC80935A
:100390003C0190933D01A0933E01B0933F016091D9
:1003A000340170913501809136019091370120E040
:1003B00030E04EEF52E40E94170A60960FB6F894B0
:1003C000DEBF0FBECDBFDF91CF91FF90EF90DF90EA
:1003D000CF90BF90AF909F908F907F906F905F90E5
:1003E0004F900895CF93DF93C82F80ED0E94B60001
:1003F000882329F025E02A95F1F70000F6CF80ED5B
:100400000E94B6008C2F0E94A70081ED0E94B600CA
:1004100084EC8093BC000E94A200C091BB00D0E09D
:10042000DC2FCC2784E88093BC000E94A20080913E
:10043000BB0094E99093BC009E01282BC901DF9179
:10044000CF9108951F93CF93DF93182FD62F80ED70
:100450000E94B600882329F085E08A95F1F7000014
:10046000F6CF80ED0E94B600C82F812F0E94A70012
:100470008D2F0E94A70084E98093BC008C2FDF9110
:10048000CF911F9108958091C00087FD05C085E040
:100490008A95F1F70000F7CF8091C60090E00895AB
:1004A0009091C00095FD05C095E09A95F1F7000088
:1004B000F7CF8093C60080E090E008958F929F92DE
:1004C000AF92BF92CF92DF92EF92FF92CF93DF93E2
:1004D0008BE30E94F201EC018FE30E94F2017C01A8
:1004E00085E40E94F201BC01990F880B990B0E94D0
:1004F000A50820E030E043E053E40E94F50A4B01F8
:100500005C01B701FF0C880B990B0E94A5086B01D9
:100510007C01BE01DD0F880B990B0E94A508A70185
:1005200096010E94960A6B017C01C501B4010E94EC
:10053000670B072E000C880B990B0E94A5082AE078
:1005400037ED43EA5BE30E94040920E030E044EB2E
:1005500052E40E94170A2DEC3CEC4CEC5DE30E9447
:1005600004094B015C0120E030E044E353E4C7019F
:10057000B6010E9404092BED3FE049E450E40E94DB
:10058000F50A26E636E646E65FE30E9404099B018B
:10059000AC01C501B4010E94170ADF91CF91FF9011
:1005A000EF90DF90CF90BF90AF909F908F90089585
:1005B0001F920F920FB60F9211242F933F934F93D8
:1005C0005F936F937F938F939F93AF93BF93EF93BB
:1005D000FF9386E091E00E9443028D3041F08A3320
:1005E00009F0B5C010925F0110925E01BFC0E091AA
:1005F0005E01F0915F01E05CFE4F1082E0914001EE
:100600008E2FEE0F990BAA0BBB0BFC01E154F109E5
:10061000E331F10508F0AAC0E55CFF4F0C94F40B40
:1006200081E491E00E940907BC01C29781359105E0
:1006300078F4072E000C880B990B0E94A508609394
:1006400000017093010180930201909303018EC019
:100650008091000190910101A0910201B0910301EC
:10066000BF93AF939F938F9387E191E09F938F9375
:100670000E941C0C0F900F900F900F900F900F90F6
:1006800075C081E491E00E94050760936E0170934C
:100690006F01809370019093710168C081E491E0D3
:1006A0000E94050760936A0170936B0180936C014F
:1006B00090936D015BC081E491E00E940507609317
:1006C00066017093670180936801909369014EC041
:1006D00080E090E0AAEAB2E48093000190930101E7
:1006E000A0930201B093030181E090E01AC080E082
:1006F00090E0AEEBB2E48093000190930101A093EF
:100700000201B093030182E090E00BC083E090E02F
:1007100008C084E090E005C085E090E002C086E07B
:1007200090E0909365018093640120C08091650101
:100730008F93809164018F9389E291E09F938F93CF
:100740000E941C0C0F900F900F900F900FC02091E3
:100750005E0130915F01A9014F5F5F4F50935F01D0
:1007600040935E01F901E05CFE4F80838091C00000
:100770008F778093C000FF91EF91BF91AF919F91D0
:100780008F917F916F915F914F913F912F910F903A
:100790000FBE0F901F9018951F920F920FB60F92D9
:1007A0001124F8941092050110920401B1980F9051
:1007B0000FBE0F901F9018958F929F92AF92BF928D
:1007C000CF92DF92EF92FF921F93CF93DF9388B186
:1007D000806388B988E48093B8008FE39CE901972F
:1007E000F1F700C000006BE08BE60E94220265E09A
:1007F0008AE10E94220260E08BE10E94220260E016
:100800008CE10E94220280E190E09093C5008093E9
:10081000C40088E18093C1008EE08093C200809183
:10082000C0008F778093C0008091C1008068809362
:10083000C10086E091E090937701809376019093D8
:1008400079018093780184E191E00E94320C7894E0
:10085000539A239A8091B0008C7F8093B00080914E
:10086000B100877F8093B1008091B0008160809358
:10087000B0008091B0008F738093B0008091B00081
:100880008F7C8093B0008091B00080688093B0002E
:100890008091B00080638093B00081E090E09093FD
:1008A0006101809360018091B100887F8093B100E5
:1008B000809160019091610188309105E1F040F4F0
:1008C0000097A9F0019721F58091B10081601EC0C9
:1008D000811521E0920799F0811524E0920799F0A3
:1008E00080349105A9F48091B10083600FC080919C
:1008F000B100887F0BC08091B100826007C08091F9
:10090000B100846003C08091B10085608093B10024
:10091000569A559A84B58C7F84BD85B5877F85BDF1
:1009200084B5816084BD84B58F7384BD84B58F7CAC
:1009300084BD84B5806884BD84B5806384BD81E056
:1009400090E0909361018093600185B5887F85BDBB
:10095000809160019091610188309105C9F038F46F
:10096000009799F00197E9F485B5816019C0811568
:1009700021E0920781F0811524E0920779F080341C
:10098000910579F485B583600BC085B5887F08C073
:1009900085B5826005C085B5846002C085B5856077
:1009A00085BD809180008C7F809380008091810044
:1009B000877E809381008091810088608093810090
:1009C00088E090E0909363018093620180918100C0
:1009D000887F8093810080916201909163018830CB
:1009E0009105E1F040F40097A9F0019721F580917D
:1009F000810081601EC0811521E0920799F0811568
:100A000024E0920799F080349105A9F48091810047
:100A100083600FC080918100887F0BC0809181002E
:100A2000826007C080918100846003C08091810052
:100A3000856080938100809180008F738093800017
:100A4000809180008F7C80938000809180008F73E4
:100A500080938000809180008F7C80938000B1988B
:100A600080916F00826080936F00209162013091CD
:100A7000630140E050E060E074E284EF90E00E94A7
:100A8000D50BCA01B9010E94A5082AE037ED43EA57
:100A90005BE30E94040920E030E040E85FE30E944D
:100AA000160A0E946E0B70938900609388008AE09A
:100AB00097EDA3EABBE38093720190937301A09337
:100AC0007401B093750180E090E0A0E2B1E48093FE
:100AD0006E0190936F01A0937001B0937101109219
:100AE0006A0110926B0110926C0110926D018AE004
:100AF00097EDA3E2BCE38093660190936701A09316
:100B00006801B093690185E090E09093650180935E
:100B10006401C1E0D0E01FE7E0916401F09165015C
:100B2000E730F105E8F7EC5CFF4F0C94F40B17BDD0
:100B300018BD1093B3001093B4008FE99FE00197A4
:100B4000F1F700C00000E8CF809104019091050109
:100B5000892B81F095E09A95F1F70000F5CF80910F
:100B6000040190910501892B29F025E02A95F1F7E0
:100B70000000F5CF0E945E024B015C016091000114
:100B8000709101018091020190910301A5019401EE
:100B9000D9C08091040190910501892B29F085E04D
:100BA0008A95F1F70000F5CF0E945E024B015C01CF
:100BB0006091000170910101809102019091030107
:100BC000A50194010E94160A0E94D7006B017C01C6
:100BD00020E030E04AE753E40E94C40B18168CF082
:100BE00020E030E040EA50E4C701B6010E949E08D0
:100BF00087FF0DC0C12CD12CE0EAEE2EE0E4FE2EE2
:100C000006C0C12CD12C7AE7E72E73E4F72E20E042
:100C100030E042E053E4C501B4010E94C40B181651
:100C200054F020E030E048E452E4C501B4010E94F1
:100C30009E0887FF06C0C12CD12C6EEFE62E62E421
:100C4000F62EC701B6010E946E0B8CEE860F87BD93
:100C500088BD6C5EBCC08091040190910501892B18
:100C600029F095E09A95F1F70000F5CF0E945E0219
:100C70004B015C01609100017091010180910201C2
:100C800090910301A50194010E94160A0E94D700C9
:100C90006B017C0120E030E04AE753E40E94C40B82
:100CA00018168CF020E030E040EA50E4C701B601AD
:100CB0000E949E0887FF0DC0C12CD12C50EAE52E62
:100CC00050E4F52E06C0C12CD12C4AE7E42E43E4B3
:100CD000F42E20E030E042E053E4C501B4010E946C
:100CE000C40B181654F020E030E048E452E4C5018B
:100CF000B4010E949E0887FF06C0C12CD12C3EEF94
:100D0000E32E32E4F32EC701B6010E946E0B84E19C
:100D1000860F87BD88BD64515AC0809104019091AF
:100D20000501892B29F025E02A95F1F70000F5CF80
:100D30000E945E024B015C019B01AC0160E070E02F
:100D400084EB92E40E94160A0E94D7006B017C019A
:100D500020E030E04AE753E40E94C40B18168CF000
:100D600020E030E040EA50E4C701B6010E949E084E
:100D700087FF0DC0C12CD12C20EAE22E20E4F22EF8
:100D800006C0C12CD12C9AE7E92E93E4F92E20E07D
:100D900030E042E053E4C501B4010E94C40B1816D0
:100DA00054F020E030E048E452E4C501B4010E9470
:100DB0009E0887FF06C0C12CD12C8EEFE82E82E45E
:100DC000F82EC701B6010E946E0B67BD68BD609327
:100DD000B3006093B400D0930501C09304019CCE8E
:100DE0008FE787BD88BD8093B3008093B40080E017
:100DF00090E0DF91CF911F91FF90EF90DF90CF9027
:100E0000BF90AF909F908F900895662777270C949E
:100E10002F07FC0188279927E89421912032E9F3D4
:100E2000293010F02E30C8F32B3241F02D3239F436
:100E3000689404C00E942707820F911D21912053BE
:100E40002A30C0F31EF4909581959F4F08957AE063
:100E5000979F902D879F802D910D11240895A0E0DC
:100E6000B0E0E5E3F7E00C94D609EC016B01611505
:100E7000710519F0FB01918380837E01FFEFEF1A6A
:100E8000FF0A0881802F90E00E947D08892B11F0D5
:100E9000E701F3CF0D3239F47E0182E0E80EF11C58
:100EA000098111E008C00B3229F47E0192E0E90EBD
:100EB000F11C098110E0E701219743E050E062ED69
:100EC00070E0CE010E948608892BC1F4239645E08C
:100ED00050E06DEC70E0CE010E948608892B09F489
:100EE0002596C114D10419F0F601D183C0831111E4
:100EF000F6C060E070E080E89FE7FAC043E050E0B1
:100F00006AEC70E0CE010E948608892B59F4C11466
:100F1000D10409F4E9C0F2E0EF0EF11CF601F18210
:100F2000E082E2C020E030E0A901C0E0D0E0F701BB
:100F300080EDA82EA00E89E08A1530F1912F9260E5
:100F4000B92E812F887012FF04C0811124C0219610
:100F500022C081112197A5E0B0E00E94C509DC0103
:100F6000CB01880F991FAA1FBB1F9C01AD012A0D41
:100F7000311D411D511D283989E93807480789E18C
:100F8000580748F0166006C09EEFA9120AC013FD6C
:100F900040C01860B12E8FEFE81AF80A00811B2DAF
:100FA000C6CF802F8F7D8534A1F580818D3211F4DD
:100FB000106106C08B3221F0319661E070E004C010
:100FC0008181329662E070E080538A3018F0E61B2F
:100FD000F70B1FC060E070E060389CE079075CF4BC
:100FE000DB01AA0FBB1FAA0FBB1F6A0F7B1F660F77
:100FF000771F680F711D3196DF0111978C91805317
:101000008A3050F314FF03C0719561957109C60FC2
:10101000D71F11FF08C0C114D10429F0CF010197D7
:10102000F60191838083CA01B9010E94A308212F90
:101030002370233019F04B015C0106C04B015C01A9
:10104000B7FAB094B7F8B09420E030E0A901C50138
:10105000B4010E949E08882309F43EC0D7FF06C051
:10106000D195C195D10909EE10E002C001E011E06F
:101070006801F8E1CF1AD10890E2E92EF12CCE15E3
:10108000DF0574F0F8012591359145915491C50122
:10109000B4010E9404094B015C01CE19DF09EFCFB6
:1010A00004501109F594E7940C151D0541F78A2D9C
:1010B000880F8B2D881F8F3F49F020E030E0A90179
:1010C000C501B4010E949E08811106C082E290E031
:1010D00090937D0180937C01C501B40109C060E05B
:1010E00070E080E89FEF04C060E070E080EC9FE774
:1010F000CDB7DEB7ECE00C94F20991110C947109B4
:10110000803219F089508550C8F70895FB01DC0141
:101110004150504088F08D9181341CF08B350CF497
:10112000805E659161341CF06B350CF4605E861B4B
:10113000611171F3990B0895881BFCCF0E94E008A0
:1011400008F481E00895E89409C097FB3EF4909577
:101150008095709561957F4F8F4F9F4F9923A9F090
:10116000F92F96E9BB279395F6958795779567951F
:10117000B795F111F8CFFAF4BB0F11F460FF1BC063
:101180006F5F7F4F8F4F9F4F16C0882311F096E9F6
:1011900011C0772321F09EE8872F762F05C06623A4
:1011A00071F096E8862F70E060E02AF09A95660F5D
:1011B000771F881FDAF7880F9695879597F9089516
:1011C000990F0008550FAA0BE0E8FEEF1616170658
:1011D000E807F907C0F012161306E407F50798F0C0
:1011E000621B730B840B950B39F40A2661F0232BD9
:1011F000242B252B21F408950A2609F4A140A69555
:101200008FEF811D811D08950E9417090C948B0991
:101210000E947D0938F00E94840920F0952311F086
:101220000C9474090C947A0911240C94BF090E943F
:101230009C0970F3959FC1F3950F50E0551F629F75
:10124000F001729FBB27F00DB11D639FAA27F00D1F
:10125000B11DAA1F649F6627B00DA11D661F829F46
:101260002227B00DA11D621F739FB00DA11D621F2B
:10127000839FA00D611D221F749F3327A00D611D48
:10128000231F849F600D211D822F762F6A2F11242A
:101290009F5750409AF0F1F088234AF0EE0FFF1F5D
:1012A000BB1F661F771F881F91505040A9F79E3FB4
:1012B000510580F00C9474090C94BF095F3FE4F36E
:1012C000983ED4F3869577956795B795F795E7950A
:1012D0009F5FC1F7FE2B880F911D9695879597F913
:1012E000089599278827089597F99F6780E870E007
:1012F00060E008959FEF80EC089500240A9416168C
:10130000170618060906089500240A9412161306F3
:10131000140605060895092E0394000C11F4882381
:1013200052F0BB0F40F4BF2B11F460FF04C06F5F9D
:101330007F4F8F4F9F4F089557FD9058440F551F73
:1013400059F05F3F71F04795880F97FB991F61F047
:101350009F3F79F087950895121613061406551FBE
:10136000F2CF4695F1DF08C0161617061806991F2A
:10137000F1CF86957105610508940895E894BB271F
:1013800066277727CB0197F908950E94070AA59F42
:10139000900DB49F900DA49F800D911D1124089570
:1013A0002F923F924F925F926F927F928F929F9275
:1013B000AF92BF92CF92DF92EF92FF920F931F9363
:1013C000CF93DF93CDB7DEB7CA1BDB0B0FB6F89414
:1013D000DEBF0FBECDBF09942A88398848885F8454
:1013E0006E847D848C849B84AA84B984C884DF80C5
:1013F000EE80FD800C811B81AA81B981CE0FD11DA9
:101400000FB6F894DEBF0FBECDBFED010895A29FC9
:10141000B001B39FC001A39F700D811D1124911DC8
:10142000B29F700D811D1124911D08955058BB2746
:10143000AA270E942E0A0C948B090E947D0938F07D
:101440000E94840920F039F49F3F19F426F40C948B
:101450007A090EF4E095E7FB0C947409E92F0E94D9
:101460009C0958F3BA17620773078407950720F0A1
:1014700079F4A6F50C94BE090EF4E0950B2EBA2F64
:10148000A02D0B01B90190010C01CA01A00111248A
:10149000FF27591B99F0593F50F4503E68F11A1636
:1014A000F040A22F232F342F4427585FF3CF4695C7
:1014B00037952795A795F0405395C9F77EF41F16E9
:1014C000BA0B620B730B840BBAF09150A1F0FF0FB3
:1014D000BB1F661F771F881FC2F70EC0BA0F621F9F
:1014E000731F841F48F4879577956795B795F7958F
:1014F0009E3F08F0B0CF9395880F08F09927EE0F24
:101500009795879508950E947D0960F080E891E0A5
:1015100009F49EEF0E94840928F040E851E071F43C
:101520005EEF0CC00C947A090C94BE09E92FE078A8
:101530000E949C0940F3092E052AB1F326173707AC
:101540004807590738F00E2E07F8E02569F0E02526
:10155000E0640AC0EF6307F8009407FADB01B90101
:101560009D01DC01CA01AD01EF930E940C0B0E94AA
:101570008B090E94C60A5F91552339F02BED3FE09D
:1015800049E450FD49EC0C94170A0895DF93DD27D8
:10159000B92FBF7740E85FE31616170648075B07C9
:1015A00018F4D92F0E94C90B9F938F937F936F9349
:1015B0000E94D10BECE9F0E00E949D0B0E948B0988
:1015C0002F913F914F915F910E941709DD2351F0B8
:1015D0009058A2EA2AED3FE049EC5FE3D0785D271E
:1015E0000E942E0ADF910C948B090E94090B0C9427
:1015F0008B090E94840958F00E947D0940F029F46B
:101600005F3F29F00C94740951110C94BF090C949C
:101610007A090E949C0968F39923B1F3552391F349
:10162000951B550BBB27AA2762177307840738F051
:101630009F5F5F4F220F331F441FAA1FA9F335D0AE
:101640000E2E3AF0E0E832D091505040E695001C62
:10165000CAF72BD0FE2F29D0660F771F881FBB1F1C
:10166000261737074807AB07B0E809F0BB0B802DFA
:10167000BF01FF2793585F4F3AF09E3F510578F026
:101680000C9474090C94BF095F3FE4F3983ED4F3C3
:10169000869577956795B795F7959F5FC9F7880FFA
:1016A000911D9695879597F90895E1E0660F771F4C
:1016B000881FBB1F621773078407BA0720F0621BDD
:1016C000730B840BBA0BEE1F88F7E09508950E9408
:1016D0006E0B6894B1110C94BF0908950E94A4097F
:1016E00088F09F5798F0B92F9927B751B0F0E1F0E3
:1016F000660F771F881F991F1AF0BA95C9F714C093
:10170000B13091F00E94BE09B1E008950C94BE0979
:10171000672F782F8827B85F39F0B93FCCF38695CB
:1017200077956795B395D9F73EF490958095709528
:1017300061957F4F8F4F9F4F0895DF93CF931F93F6
:101740000F93FF92EF92DF927B018C01689406C0A9
:10175000DA2EEF010E941709FE01E894A591259168
:10176000359145915591A6F3EF010E942E0AFE0195
:101770009701A801DA9469F7DF90EF90FF900F913D
:101780001F91CF91DF9108950E94E00808F48FEF38
:1017900008959B01AC0160E070E080E89FE30C9449
:1017A000F50A9B01AC010C940409052E97FB1EF46D
:1017B00000940E94EC0B57FD07D00E94FA0B07FC27
:1017C00003D04EF40C94EC0B509540953095219538
:1017D0003F4F4F4F5F4F089590958095709561955D
:1017E0007F4F8F4F9F4F0895EE0FFF1F0590F4918D
:1017F000E02D0994A1E21A2EAA1BBB1BFD010DC00E
:10180000AA1FBB1FEE1FFF1FA217B307E407F507B0
:1018100020F0A21BB30BE40BF50B661F771F881F8C
:10182000991F1A9469F760957095809590959B0122
:10183000AC01BD01CF010895A0E0B0E0E2E2FCE020
:101840000C94E009AE014B5F5F4FFA016191719119
:10185000AF0180917801909179010E94620CE2E0E1
:101860000C94FC090F931F93CF93DF93E0917801C1
:10187000F0917901238121FF1BC08C01D0E0C0E0F1
:10188000F80181918F016091780170917901DB01FC
:101890001896ED91FC911997882331F00995892BC1
:1018A00079F3DFEFCFEFECCF8AE00995892B19F0C0
:1018B0008FEF9FEF02C08D2F9C2FDF91CF911F9153
:1018C0000F910895ABE0B0E0E8E6FCE00C94D0099D
:1018D0006C017B018A01FC0117821682838181FFE2
:1018E000CCC1CE0101963C01F6019381F70193FD35
:1018F000859193FF81917F01882309F4BAC18532D4
:1019000039F493FD859193FF81917F01853229F40C
:10191000B60190E00E94590EE7CF912C212C312C7A
:10192000FFE1F315D8F08B3279F038F4803279F09A
:101930008332A1F4232D20611DC08D3261F08033EC
:1019400069F4232D216016C0832D8260382EE32D8B
:10195000E4603E2E2AC0F32DF8601DC037FC2DC078
:1019600020ED280F2A3040F08E32B9F436FC81C1C8
:10197000232D2064322E19C036FE06C08AE0989EC0
:10198000200D1124922E11C0EAE02E9E200D11246C
:10199000222EF32DF0623F2E08C08C3621F4832DC9
:1019A0008068382E02C0883641F4F70193FD859196
:1019B00093FF81917F018111B3CF982F9F7D955423
:1019C000933028F40C5F1F4F9FE399830DC083363B
:1019D00031F0833771F0833509F059C021C0F80127
:1019E000808189830E5F1F4F88248394912C53013B
:1019F00013C02801F2E04F0E511CF801A080B18005
:101A000036FE03C0692D70E002C06FEF7FEFC501A5
:101A10000E944E0E4C018201F32DFF773F2E16C01F
:101A2000280122E0420E511CF801A080B18036FE50
:101A300003C0692D70E002C06FEF7FEFC5010E9407
:101A4000430E4C01F32DF0683F2E820133FC1BC086
:101A5000822D90E088169906B0F4B60180E290E0FD
:101A60000E94590E2A94F4CFF50137FC859137FE78
:101A700081915F01B60190E00E94590E21102A94D5
:101A800021E0821A91088114910471F7E8C084362C
:101A900011F0893641F5F80137FE07C06081718188
:101AA000828193810C5F1F4F08C060817181072E76
:101AB000000C880B990B0E5F1F4FF32DFF763F2E06
:101AC00097FF09C090958095709561957F4F8F4FD6
:101AD0009F4FF0683F2E2AE030E0A3010E94950E50
:101AE000882E861845C0853731F4232D2F7EB22EDF
:101AF0002AE030E025C0932D997FB92E8F36C1F0B2
:101B000018F4883579F0B5C0803719F0883721F09E
:101B1000B0C0E92FE061BE2EB4FE0DC0FB2DF46015
:101B2000BF2E09C034FE0AC0292F2660B22E06C07F
:101B300028E030E005C020E130E002C020E132E0E2
:101B4000F801B7FE07C060817181828193810C5FCB
:101B50001F4F06C06081718180E090E00E5F1F4FD3
:101B6000A3010E94950E882E8618FB2DFF773F2E2D
:101B700036FE0DC0232D2E7FA22E891458F434FE7C
:101B80000BC032FC09C0832D8E7EA82E05C0B82C58
:101B9000A32C03C0B82C01C0B92CA4FE0FC0FE01B9
:101BA000E80DF11D8081803321F49A2D997EA92EB4
:101BB00009C0A2FE06C0B394B39404C08A2D8678EF
:101BC00009F0B394A3FC11C0A0FE06C0B21488F4BF
:101BD000280C922C9B180EC0B21460F4B60180E25F
:101BE00090E00E94590EB394F7CFB21418F42B185A
:101BF00002C0982C212CA4FE10C0B60180E390E016
:101C00000E94590EA2FE17C0A1FC03C088E790E015
:101C100002C088E590E0B6010CC08A2D867859F0A4
:101C2000A1FE02C08BE201C080E2A7FC8DE2B601FA
:101C300090E00E94590E891438F4B60180E390E0D8
:101C40000E94590E9A94F7CF8A94F301E80DF11D82
:101C50008081B60190E00E94590E8110F5CF2220BC
:101C600009F442CEB60180E290E00E94590E2A9417
:101C7000F6CFF6018681978102C08FEF9FEF2B96FA
:101C8000E2E10C94EC09FC010590615070400110F8
:101C9000D8F7809590958E0F9F1F0895FC01615095
:101CA000704001900110D8F7809590958E0F9F1F7E
:101CB00008950F931F93CF93DF93FB01238121FDA1
:101CC00003C08FEF9FEF2CC022FF16C046815781C3
:101CD000248135814217530744F4A081B1819D01CD
:101CE0002F5F3F4F318320838C93268137812F5F75
:101CF0003F4F3783268314C08B01EC01FB01008426
:101D0000F185E02D0995892BE1F6D80116968D9184
:101D10009C911797019617969C938E931697CE01D8
:101D2000DF91CF911F910F910895FA01AA272830D2
:101D300051F1203181F1E8946F936E7F6E5F7F4F98
:101D40008F4F9F4FAF4FB1E03ED0B4E03CD0670F14
:101D5000781F891F9A1FA11D680F791F8A1F911D67
:101D6000A11D6A0F711D811D911DA11D20D009F4B7
:101D700068943F912AE0269F11243019305D3193F9
:101D8000DEF6CF010895462F4770405D4193B3E0E2
:101D90000FD0C9F7F6CF462F4F70405D4A3318F089
:101DA000495D31FD4052419302D0A9F7EACFB4E03A
:101DB000A6959795879577956795BA95C9F70097F2
:101DC0006105710508959B01AC010A2E0694579593
:101DD000479537952795BA95C9F7620F731F841FEA
:0A1DE000951FA01D0895F894FFCF91
:101DEA000000B4420100000000030000000050029D
:101DFA00430200004F4B005354206D7579206772DF
:101E0A00616E64653A25640A0045737461646F20E3
:041E1A0025640A0031
:00000001FF
