:100000000C943B000C944D000C944D000C944D004E
:100010000C944D000C944D000C944D000C944D002C
:100020000C944D000C944D000C944D000C944D001C
:100030000C944D000C944D000C944D000C944D000C
:100040000C944D000C944D000C944D000C944D00FC
:100050000C944D000C944D000C944D000C944D00EC
:100060000C944D000C944D007200780087008D00B8
:10007000930099009F0011241FBECFEFD8E0DEBF90
:10008000CDBF21E0A0E0B1E001C01D92A230B207D7
:10009000E1F70E944F000C94C4000C9400001092F1
:1000A000010110920001259A249A239A229A219AFA
:1000B000209A519A86E090E025E030E044E050E05C
:1000C00063E070E0A2E0B0E0C1E0D0E0E0910001C8
:1000D000F0910101E730F10508F046C0EC5CFF4FFC
:1000E0000C94BE00D0930101C09300012D9A05C06D
:1000F0002C9AB0930101A09300011FEFE3EDF0E310
:100100001150E040F040E1F700C000002DC02B9AF4
:100110007093010160930001F0CF2A9A509301017E
:1001200040930001EACF299A309301012093000106
:10013000E4CF289A9093010180930001DECF1092C2
:10014000010110920001599A1FEFE3EDF0E3115005
:10015000E040F040E1F700C000002D982C982B986B
:100160002A982998289859981FEFE3EDF0E3115049
:10017000E040F040E1F700C00000A8CFEE0FFF1F05
:0C0180000590F491E02D0994F894FFCF55
:00000001FF
